:020000040800F2
:10000000B80800209901000823220008A120000858
:1000100021220008750B00082D27000800000000B1
:10002000000000000000000000000000272200087F
:10003000770B000800000000252200082922000894
:10004000B3010008B3010008B3010008B3010008C0
:10005000B3010008B3010008B3010008B3010008B0
:10006000B3010008B3010008790B0008B3010008D0
:10007000B3010008B3010008B3010008B301000890
:10008000B3010008B3010008B3010008B301000880
:10009000B3010008B3010008B3010008110C000807
:1000A000B3010008B3010008B3010008B301000860
:1000B00081220008B30100088D220008B301000866
:1000C000B3010008B3010008B3010008B301000840
:1000D000B301000821270008B3010008B30100089C
:1000E000B3010008B3010008B301000800F002F8F2
:1000F00000F042F80AA090E8000C82448344AAF180
:100100000107DA4501D100F037F8AFF2090EBAE87D
:100110000F0013F0010F18BFFB1A43F0010318473B
:100120007430000094300000103A24BF78C878C1C1
:10013000FAD8520724BF30C830C144BF04680C60ED
:10014000704700000023002400250026103A28BF35
:1001500078C1FBD8520728BF30C148BF0B60704739
:100160001FB59DE8030000F0BBFA00F099F81FBD31
:1001700010B500F0FEF810BD00F061F91146FFF770
:10018000EFFF02F0F1FA00F079FA03B4FFF7F0FFA5
:1001900003BC00F037FC00000948804709480047CD
:1001A000FEE7FEE7FEE7FEE7FEE7FEE7FEE7FEE727
:1001B000FEE7FEE704480549054A064B7047000084
:1001C0007D220008ED000008B8020020B8080020D9
:1001D000B8040020B80400200FB4044910B503AAE5
:1001E000029800F02FF810BC5DF814FBB00100205D
:1001F0004FF0000200B5134694469646203922BFC0
:10020000A0E80C50A0E80C50B1F12001BFF4F7AF0A
:10021000090728BFA0E80C5048BF0CC05DF804EBEC
:10022000890028BF40F8042B08BF704748BF20F85A
:10023000022B11F0804F18BF00F8012B7047704758
:1002400070477047074B70B50D467B4400F011F8BE
:100250000446284600F020F810B14FF0FF3070BD82
:10026000204670BD0325000001694A1C0261087820
:10027000704700B58FB0CDE90131002105910549E6
:100280007944CDE903101146684600F024F90FB017
:1002900000BD0000E5FFFFFF007B00F0800070471D
:1002A00010B542485421FFF7A3FF41485421FFF7FE
:1002B0009FFF40485421FFF79BFF3F493B483C4A82
:1002C0003F4B08603D490A603A491960531C036579
:1002D000481C1065012008653B48344A39A1784420
:1002E00000F030F920B9384878440A3800F0CFF9E6
:1002F00037482F4A35A1784400F024F920B9344812
:1003000078440A3800F0C3F932482A4A2FA17844C9
:1003100000F018F920B92F4878440A3800F0B7F9EE
:1003200040232248DC000021224600F0E8F820B1FA
:1003300025487844543800F0AAF91D482246402345
:10034000002100F0DCF820B121487844543800F056
:100350009EF9184822461023002100F0D0F800280A
:1003600006D01C487844BDE81040563800F08FB9DC
:1003700010BD104870B5006D20F001040B4800F06E
:1003800057F90B4800F054F90A4800F051F909E018
:10039000206D20F00105204600F04AF9204600F0CB
:1003A00073F82C46002CF3D170BD00005C010020D6
:1003B000B001002004020020280000202C000020B2
:1003C0003000002072000000A62E00007700000020
:1003D000922E00007E2E00000EB5CDE9000100F047
:1003E000F1FA029069460120ABBE0EBD08B5694620
:1003F00000900220ABBE08BD1FB58DE8070069461E
:100400000520ABBE04B010BD1FB58DE80F006946D6
:100410000620ABBEF6E708B5694600900920ABBEE2
:1004200008BD1CB5CDE9000169460A20ABBE1CBD64
:10043000704708B5694600900C20ABBE08BD7546F4
:1004400000F02CF9AE4605006946534620F007003F
:10045000854618B020B5FFF7ADFEBDE820404FF04F
:1004600000064FF000074FF000084FF0000B21F09E
:100470000701AC46ACE8C009ACE8C009ACE8C0096B
:10048000ACE8C0098D46704770B50446051F00F002
:100490000BF90068002C14BF446870BD002C18BF15
:1004A000AC423CBF20466468F8D301680A18AA42EF
:1004B00018BF456003D12A680546114401602868C9
:1004C0004119A1421CBF6C6070BD61686960216800
:1004D0000844286070BD2DE9F04106460024D6E9A5
:1004E0000170F5688046304603E04146B847641C19
:1004F0003046A8470028F8D12046BDE8F08170B505
:10050000C468A50713D0650211D4B2F5807F09D065
:10051000B2F5007F06D0B2F5806F08D1012300F15B
:10052000240106E05D1E6FF07F46B54201D3012035
:1005300070BD0161C361416024F470611143C16009
:10054000002070BD2DE9F0410C46074616461046C6
:1005500000F06EF82078611C61280AD0722802D061
:1005600077283CD102E00125002405E0022504247F
:1005700002E0082448F2020511F8010B2B2806D0EE
:10058000622809D011F8010C74280AD00BE045F05C
:10059000030544F00204EFE745F0040544F00104CC
:1005A000EAE744F0100438462146FFF715FF411CE6
:1005B00015D00021316171604FF40071F560F16177
:1005C0007061200704D530460222002100F0E6F8D1
:1005D000306D40F0010030653046BDE8F08100200C
:1005E000FBE72DE9F0410D460646104C206DC10792
:1005F00004D0410804D020F00104F7E722460EE0C1
:10060000542000F09CF807000ED0206D47F0010147
:100610000843542120653846FFF7EAFD3A4629464B
:100620003046BDE8F0418DE70020D6E75C010020B0
:100630002DE9F04704464FF000094FF0FF37C56839
:10064000D4E90486A80707D0204600F057F93046C1
:10065000FFF7CCFE002802DA3846BDE8F08728050F
:1006600002D54046FFF710FF4C212046FFF7C0FDA2
:10067000206D20F0010020654846EEE710B50446E5
:10068000AFF300802046BDE81040FFF77EBD10B5F7
:1006900000F07EF9BDE8104000F074B900487047E2
:1006A0005802002070470000004870476002002098
:1006B000704770477047704738B504460A460020B7
:1006C0006946AFF30080002808BF38BD0246009994
:1006D000204600F0A4F9012038BD012000F0F3B954
:1006E000F8B5AFF30080054600200C46102000BF8F
:1006F0000646A819A0420DD9324669460020AFF33C
:100700000080070008BF00F0DEF90098A04218BF83
:100710000546C419FFF7C8FF05600746F01D20F025
:1007200007004619284600F073F9B44208BFF8BD27
:10073000A21B31463868BDE8F84000F070B970B5CA
:100740000646FFF7B1FF056806F10B0020F007042D
:10075000B4429CBF002070BD2B466A68BAB11068D5
:10076000A04210D304F1080188423CBF5068586091
:1007700007D35168101941601168091B0160586066
:100780001460101D70BD13465268002AE7D121463F
:100790002846FFF791FF0028DED170BD2DE9F0411A
:1007A000044616460D464769007B80072ED0384622
:1007B000FFF731FE50BB3EB3012E02D0022E25D1F1
:1007C00004E0204600F045F905441DE03846FFF7F7
:1007D00030FEE168002841F01001E16005DA2046B2
:1007E00000F058F80120BDE8F081C9030BD562681C
:1007F000E16A914200D81146A26911442269891A1E
:10080000814200DD08460544002D01DA0220EAE7B6
:10081000E16A6068E268814206D29103E06203D532
:1008200022F4003141F01002A6690027AE4213DC29
:10083000E16A814201D90B4600E0034603EB060C56
:100840002369ACEB030CAC4506DD814201D98C4633
:1008500000E084469C4505D1A760276042F0200057
:10086000A5620DE0AD1BE669AE1B8142A66000D912
:100870000846C01A281A20605819606022F020002B
:1008800003490840E060002084F84870ABE70000AE
:10089000BFCFD7FFC16821F4001141F08001C160D2
:1008A00000218160016070472DE9F04781461446C0
:1008B0000E464FF0FF383248D5685769054209D0D7
:1008C0003846A169FFF7ADFD002811DB2C48C04375
:1008D0000540E5602B46324649463846FFF78CFD19
:1008E000A16920F00042B21A11440028A16103D08E
:1008F0002046FFF7CFFF4046BDE8F08770B50446BD
:100900000569C06A6168884200D80846E16821F438
:100910002011E160C90312D5A84208D02246411B2C
:100920002846FFF7C1FF10B14FF0FF3070BD002027
:10093000E562C4E90150E06820F48030E060002006
:1009400070BD10B50446C06820F02000E060A16AC8
:10095000A06988420DD02046FFF7D0FFE06820F460
:10096000405040F01000E060A06AA0612069E062A1
:10097000606044F24001E0688843E06010BD000020
:1009800010000200002801D000F03CB870470000C1
:1009900010B5014602A000F07DF8012010BD000056
:1009A00053494752545245443A205265646972652E
:1009B00063743A2063616E2774206F70656E3A200D
:1009C0000000000010B5431C02E010F8011B71B1DB
:1009D0008107FAD14FF0013202C88C1A8C4314EA15
:1009E000C211F9D0C01A0A0603D0C01E10BDC01A29
:1009F00010BD0A0401D0801E10BD0902FCD0401EAB
:100A000010BD000001491820ABBEFEE72600020021
:100A100000210160C0E901107047102070470346B3
:100A200040688C46002818BF88423CBF0346406897
:100A3000F8D318681844884207D00CF1030020F05E
:100A40000700001D411A521A0146081D0A60FFF7EF
:100A50001BBD10B50146C268900703D0900607D5AC
:100A6000886A0AE000F03EF801210160881E10BD8E
:100A70008B69486818440B69C01A91F848301BB15B
:100A800091F84910401A10BD1103FCD50028FADD79
:100A9000401E10BD70B505460C460A2000E06D1CD6
:100AA00000F018F835B128780028F8D102E0641C6D
:100AB00000F010F814B120780028F8D1BDE870409B
:100AC0000A2000F007B810B500F010F8BDE810409B
:100AD000FFF758BF08B569468DF800000320ABBE8C
:100AE00008BD0000004870475802002010B50128DA
:100AF00005D0002103A0FFF7CDFF012010BD09A103
:100B0000F8E7000053494752544D454D3A204F7580
:100B100074206F662068656170206D656D6F7279F5
:100B2000000000003A2048656170206D656D6F72AD
:100B30007920636F727275707465640070B50646D3
:100B400000200D464FEA000405EB8401496845F892
:100B5000241002F001F9641C132CF5DB3146EE641D
:100B600002F0FAF8BDE87040014902F057B9000000
:100B70000000A041FEE7704770B5234D10212846C4
:100B800000F012FA40EA44044021284600F00CFA32
:100B900040EA440010F003011C4806D001291BD094
:100BA00002291DD0032909D11EE00278012A02D1B1
:100BB000C288521C01E0C288521EC28001700189A5
:100BC000491C0181B0F906200021B2F5285F0FDB36
:100BD000C1808188491C11E00278032AEBD1E7E744
:100BE0000278002AE7D1E3E70278022AE3D1DFE7BF
:100BF00012F5285F03DCC1808188491E8180BDE831
:100C00007040102000F0D4B8000C0140000000201B
:100C100070B5234D1021284600F0C6F940EA44047F
:100C20004021284600F0C0F940EA440010F00301DA
:100C30001C4806D001291BD002291DD0032909D147
:100C40001EE00278012A02D1C288521C01E0C2884B
:100C5000521EC28001700189491C0181B0F9062031
:100C60000021B2F5285F0FDBC1808188491C11E0AB
:100C70000278032AEBD1E7E70278002AE7D1E3E71D
:100C80000278022AE3D1DFE712F5285F03DCC18096
:100C90008188491E8180BDE87040402000F088B8FE
:100CA000000C01400000002010B590F82110002237
:100CB000022905D00421816380F82020012010BD85
:100CC00001680B6823F00E030B6001680B6823F0CA
:100CD00001030B6090F84030C46B012101FA03F36B
:100CE000636080F8211080F82020104610BD0000BD
:100CF00010B590F821100024022903D0042181634B
:100D000001243DE001680A6822F00E020A600168D1
:100D10000A6822F001020A601A4A0168914201D170
:100D2000012121E0174A1432914201D110211BE028
:100D3000144A2832914201D1891515E0114A3C32FA
:100D4000914201D189140FE00E4A5032914202D1F2
:100D50004FF4803108E00B4A6432914202D14FF4E3
:100D6000801101E04FF08071064A083A516001217C
:100D700080F82110002180F82010416B01B18847D4
:100D8000204610BD0800024070B5044600F016F978
:100D90000546601C02D004480078044400F00EF9B7
:100DA000401BA042FAD370BD18000020704700001D
:100DB000044910B50A68024202D00860FFF7F6FF46
:100DC00010BD0000140401402DE9F84FDFF8B89180
:100DD0000024A9F1040B23460F2709F1040AABF103
:100DE000040EC9E00125A5402A40AA427DD1674EE4
:100DF000D1F804C0ACEB0608B44532D014DCBCF129
:100E0000030F3AD009DCBCF1000F2AD0BCF1010F6E
:100E10001CD0BCF1020F31D11DE0BCF1110F17D075
:100E2000BCF1120F2AD119E0B8F5881F19D006DCE1
:100E3000B8F5803F15D0B8F5801F1FD111E0B8F587
:100E4000001F0ED0B8F5041F18D10AE0CB6815E0DA
:100E5000CB681B1D12E0CB6808330FE0CB680C3366
:100E60000CE08B682BB1012B4FF0080303D04561D8
:100E700004E0042302E0056100E00023FF2A01D81A
:100E8000064601E000F104064FEA840501D9A5F108
:100E90002005D6F8008007FA05FC28EA0C0803FABA
:100EA00005F548EA0508C6F800804D68ED0062D5F2
:100EB000374DAE6946F00106AE61AD6924F0030618
:100EC00005F001050095334D06EB050CDCF80850E4
:100ED000A607360F07FA06F825EA0805DFF8B880F6
:100EE000404503D14FF0000817E044E0DFF8AC8044
:100EF000404502D14FF001080FE0DFF8A4804045E3
:100F000002D14FF0020808E0DFF89880404502D196
:100F10004FF0030801E04FF0040808FA06F848EA29
:100F20000508CCF808804D68D9F80060ED024D4600
:100F300001D5164300E096432E604D68DAF8006054
:100F4000AD02554601D5164300E096432E604D682C
:100F5000DBF80060AD035D4601D5164300E0964323
:100F60002E604D68DEF80060ED03754601D516432E
:100F700000E096432E60641C0D682A46E5407FF42D
:100F800031AFBDE8F88F00000804014000001110E7
:100F9000001002400000014000080140000C014028
:100FA00000100140001401408068084000D001207A
:100FB00070470AB1016170470904FBE70148806886
:100FC0007047000018000020024881680278114430
:100FD0008160704718000020074810B5016841F093
:100FE00010010160032000F075F80F2000F006F8F2
:100FF00000F024F8002010BD0020024070B50D4D17
:1010000004464FF47A712878B1FBF0F00A49096878
:10101000B1FBF0F000F0DCFA48B9102C07D2002246
:101020002146501E00F036F800206C6070BD012093
:1010300070BD000018000020240000200C4808B5F6
:10104000816941F001018161816901F00101009133
:10105000C16941F08051C161C06900F080500090C9
:101060000448416821F0E06141F00071416008BD31
:101070000010024000000140002809DB00F01F02C0
:10108000012191404009800000F1E020C0F80011EA
:1010900070470000F0B40E4B1B680C46C3F30223EC
:1010A000C3F10705042D00D90425191D072901D214
:1010B000002300E0DB1E012606FA05F1491E21404F
:1010C00099409E40761E16403143F0BC01F02FBB84
:1010D0000CED00E0064900F0070208684FF6FF0338
:1010E000184040EA0220034A10430860704700009D
:1010F0000CED00E00000FA052DE9F0470F46050071
:1011000061D0434E306800F00700B84209D2306821
:1011100020F0070038433060306800F00700B84224
:1011200051D128683B4C810712D5400703D5606830
:1011300040F4E06060602878000703D5606840F400
:10114000605060606068A96820F0F000084360604B
:101150002878C00728D06868012810D021680228A4
:1011600010D0890700292EDA616821F003010143BC
:101170006160FFF723FF804641F288390DE0216866
:101180008903EFE78901EDE7FFF718FFA0EB0801FE
:10119000494502D90320BDE8F0876068696800F01E
:1011A0000C00B0EB810FEFD1306800F00700B842BF
:1011B0000BD9306820F0070038433060306800F009
:1011C0000700B84201D00120E5E72878400705D59F
:1011D0006068E96820F4E0600843606028780007F0
:1011E00006D56068296920F4605040EAC10060605B
:1011F00000F038F86168084AC1F30311515CC84037
:101200000649086006480068FFF7F8FE0020C2E7BC
:10121000002002400010024070310008240000202D
:101220001C0000200448054900684968044AC1F3CD
:101230000221515CC8407047240000200010024089
:10124000803100080448054900684968044AC1F330
:10125000C221515CC84070472400002000100240A9
:10126000803100080E4A51680E4801F00C03042B2F
:1012700011D0082B0FD10C48C1F38343C903C05CC4
:101280000AD55168084AC1F34041921E515C054A93
:101290005043B0FBF1F070470449484370470000E9
:1012A0000010024000127A006031000800093D0081
:1012B0002DE9F84F040070D02078C04DC00749D008
:1012C0006868C0F38100012807D06868C0F3810016
:1012D000022809D16868C00306D52868800339D57B
:1012E00060680028E7D035E06068B0F5803F0BD03B
:1012F00010B1B0F5A02F11D0286820F480302860FC
:10130000286820F4802002E0286840F480302860BB
:10131000606890B1FFF752FE06460AE0286840F484
:1013200080202860F0E700BFFFF748FE801B64289C
:1013300073D828688003F7D50CE0FFF73FFE064618
:1013400005E000BFFFF73AFE801B6428F0D828684C
:101350008003F7D420789A4E80074FF001094FF0B0
:10136000000839D5686810F00C0F07D06868C0F322
:101370008100022809D16868C00306D42868800764
:1013800014D52069012808D110E02069B0B1C6F851
:101390000090FFF713FE074605E00AE1FFF70EFE97
:1013A000C01B0228C4D828688007F7D5286861695F
:1013B00020F0F80040EAC10028600DE0C6F8008087
:1013C000FFF7FCFD074604E0FFF7F8FDC01B02280D
:1013D00023D828688007F7D4207800072CD57948CF
:1013E000A169D9B1C0F80090FFF7E8FD074604E015
:1013F000FFF7E4FDC01B02280FD8686A8007F7D505
:1014000071484FF4FA510068B0FBF1F0009000BF52
:101410000098411E0091FAD20EE080E0C0F80080F2
:10142000FFF7CCFD074604E0FFF7C8FDC01B02280C
:1014300075D8686A8007F7D42078400760D5E869D6
:101440000027C00008D4E86940F08050E861E869EE
:10145000012700F0805000905C480168C90513D452
:101460000168834641F480710160FFF7A7FD824661
:1014700006E000BFFFF7A2FDA0EB0A0064284ED8EB
:10148000DBF80000C005F5D5E06801280AD008B1F6
:10149000052813D0286A20F001002862286A20F06D
:1014A000040002E0286A40F001002862E06841F28E
:1014B000883B98B1FFF782FD82460BE0286A40F036
:1014C00004002862EEE700BFFFF778FDA0EB0A01F9
:1014D00059455AD8286A8007F6D50CE0FFF76EFD0B
:1014E000824605E0FFF76AFDA0EB0A0159454CD89A
:1014F000286A8007F6D41FB1E86920F08050E861BF
:10150000E06988B36968C1F38101022944D00228E7
:10151000C6F8608004D0FFF751FD044638E034E09F
:10152000FFF74CFD074604E0FFF748FDC01B02280B
:101530002BD828688001F7D4206AB0F5803F05D108
:101540006868A16820F4003008436860D4E90801A5
:101550000843696821F4741108436860C6F8609014
:10156000FFF72CFD044606E025E000BFFFF726FD4F
:10157000001B022809D828688001F7D51BE000BFAE
:10158000FFF71CFD001B022802D90320BDE8F88FDD
:1015900028688001F4D40EE00128F7D06868226A38
:1015A00000F48031914204D1616A00F470108842E5
:1015B00001D00120EAE70020E8E700000010024027
:1015C000000042428004424224000020007000409B
:1015D00010B5401EB0F1807F01D3012010BD4FF047
:1015E000E02460610F21601701F0A1F80020A061E4
:1015F00007202061002010BD7047704770B590F83B
:101600003C20012A26D0012480F83C40022280F8A8
:101610003D2003685A689D6822F070060A683243CC
:101620005A600D4B02689A4208D0B2F1804F05D043
:101630000A4B9A4202D00A4B9A4204D1496825F0DB
:1016400080031943916080F83D40002180F83C10F0
:10165000084670BD022070BD002C0140000400400F
:101660000008004010B5040003D094F83D0010B10C
:1016700007E0012010BD002084F83C00204600F067
:101680001FF8022084F83D00211D206800F004FEB0
:10169000012084F8460084F83E0084F83F0084F876
:1016A000400084F8410084F8420084F8430084F844
:1016B000440084F8450084F83D00002010BD00007F
:1016C00008B500680B49884212D10B48C16941F046
:1016D0000401C161C069002200F0040000901146BD
:1016E0001E20FFF7D7FCBDE808401E20FFF7C4BC52
:1016F00008BD0000000800400010024090F83D10B6
:10170000012901D001207047022180F83D100168B5
:10171000CA6842F00102CA6000680B49884208D0DA
:10172000B0F1804F05D00949884202D0084988426B
:1017300004D1816801F00701062903D0016841F056
:101740000101016000207047002C014000040040AE
:101750000008004070B5044690F83C0000250128C0
:1017600017D0012684F83C60022084F83D002068F0
:10177000826822F0770222F47F4282600868502853
:1017800038D00DDC20284FD005DC90B3102811D1C3
:101790004AE0022070BD302846D040280AD13BE004
:1017A00060282FD070280DD0B0F5805F03D0B0F541
:1017B000005F12D0012584F83D60002084F83C00D1
:1017C000284670BDCB68D1E90121206800F0A7FD53
:1017D0002068816841F0770109E0CB68D1E90121F7
:1017E000206800F09CFD2068816841F480418160A0
:1017F000E1E719E0CA684968206800F045FE502119
:10180000206806E0CA684968206800F04EFE602142
:10181000206800F08EFDCEE7CA684968206800F0B5
:1018200033FE40212068F4E7226801461046F0E7C5
:10183000704770B50446006801694FF00005C94360
:10184000890715D4C168C943890711D4E91E01610C
:1018500001202077206880698007204602D0FFF7AA
:10186000E7FF04E000F0BCF8204600F069F92577B6
:1018700020680169C943490717D4C168C9434907AA
:1018800013D46FF004010161022020772068806981
:1018900010F4407F204602D0FFF7CAFF04E000F0BA
:1018A0009FF8204600F04CF9257720680169C9436C
:1018B000090716D4C168C943090712D46FF008019B
:1018C0000161042020772068C0698007204602D08B
:1018D000FFF7AEFF04E000F083F8204600F030F997
:1018E000257720680169C943C90617D4C168C9436F
:1018F000C90613D46FF01001016108202077206819
:10190000C06910F4407F204602D0FFF791FF04E049
:1019100000F066F8204600F013F925772068016989
:10192000C943C90708D1C168C943C90704D1891E81
:101930000161204600F054F920680169C943090695
:1019400009D4C168C943090605D46FF0800101615B
:101950002046FFF751FE20680169C943490609D4B2
:10196000C168C943490605D46FF0400101612046B2
:1019700000F07CF920680169C94389060BD4C1686D
:10198000C943890607D46FF0200101612046BDE8F4
:101990007040FFF732BE70BD00B585B000210091E8
:1019A0000191029103910068B0F1804F11D10A4872
:1019B000816941F0040181618069694600F0040099
:1019C0000490032000900220019003900348FFF749
:1019D000FBF905B000BD0000001002400008014006
:1019E000704770B5044690F83C0000260D4601286B
:1019F0000FD0012084F83C006AB1042A1DD0082AC7
:101A00002FD00C2A3FD00126002084F83C0030461D
:101A100070BD022070BD206800F094FC20688169D0
:101A200041F0080181612068816921F00401816130
:101A3000206881692A69114311E0206800F0AAFC3E
:101A40002068816941F4006181612068816921F425
:101A500080618161206881692A6941EA022181618E
:101A6000D2E7206800F0C2FC2068C16941F008019B
:101A7000C1612068C16921F00401C1612068C169A8
:101A80002A69114311E0206800F0DCFC2068C1697C
:101A900041F40061C1612068C16921F48061C161C4
:101AA0002068C1692A6941EA0221C161ACE710B529
:101AB000040003D094F83D0010B107E0012010BDF0
:101AC000002084F83C00204600F01EF8022084F834
:101AD0003D00211D206800F0DFFB012084F8460056
:101AE00084F83E0084F83F0084F8400084F8410008
:101AF00084F8420084F8430084F8440084F84500E8
:101B000084F83D00002010BD08B50068B0F1804F9A
:101B100012D10A48C16941F00101C161C0690022C6
:101B200000F00100009011461C20FFF7B3FABDE859
:101B300008401C20FFF7A0BA08BD000000100240BA
:101B40007047000010B50446022249B104290ED0A6
:101B5000082913D094F84100012816D0012010BDA7
:101B600094F83E000128F9D184F83E200FE094F863
:101B70003F000128F2D184F83F2008E094F84000AB
:101B80000128EBD184F8402001E084F841200122B3
:101B9000206800F0B7FB0F492068884203D1426CEF
:101BA00042F4004242642068884208D0B0F1804F7D
:101BB00005D00949884202D00849884204D1816889
:101BC00001F00701062903D0016841F0010101601D
:101BD000002010BD002C014000040040000800401F
:101BE00010B500681B49884233D11B4CB4F906007C
:101BF000B4F90C10401A00D5404200B26081B0F533
:101C0000FA7F02DBC0F57A706081B4F90A00400007
:101C100000F08CFF114A124B00F0A0FF0022114B84
:101C200000F02CFE00F0F8FD0F492061FEF786FF62
:101C30006061E088A081206901F0B2F96070064916
:101C4000094864231422491CBDE81040483800F0BC
:101C5000D9B910BD00080040000000201F85EB51DD
:101C6000B81E0940000024400C0100207047704756
:101C700070470000F8B5016804460868CA684B69F7
:101C800010F00F0F4FF0000559D003F0010602F4D9
:101C90009077374365D0C10705D0D10503D5616C76
:101CA00041F001016164410705D5D90703D0616C9A
:101CB00041F002016164810705D5D90703D0616C49
:101CC00041F004016164010707D502F020013143AE
:101CD00003D0616C41F008016164616C00293AD065
:101CE000800604D5900602D5204600F01FFC20682F
:101CF0004069616CC0F38010090700D460B32046CE
:101D000000F0EDFB20684069400621D520681430C2
:101D100050E8001F21F0400140E80012002AF5D1F0
:101D2000E06BA8B16D494163E06BFEF7E1FF00286D
:101D300011D0E06B416B01B0BDE8F040084783066D
:101D40000FD593060DD52046BDE8F84000F0EEBB58
:101D50002046FFF78DFFF8BD2046FFF789FF656439
:101D6000F8BD266B2023012E7CD1C6067AD5D60677
:101D700078D508684868009048694FF00206400628
:101D800040D5E16B086840680004000CE8D0A28DE3
:101D90008242E5D9E085886920282DD020680C3062
:101DA00050E8001F21F4807140E80012002AF5D1AC
:101DB0002068143050E8001F21F0010140E80012B3
:101DC000002AF5D12068143050E8001F21F04001AE
:101DD00040E80012002AF5D184F8423025632068DB
:101DE0000C3050E8001F21F0100140E80012002ADA
:101DF000F5D1E06BFEF758FF6663A08DE18D401AC8
:101E000081B22AE0A08DE18D401A81B2E08D0028D8
:101E1000A6D00029A4D022680C3252E8000F20F48A
:101E2000907042E80007002FF5D12068143050E888
:101E3000002F22F0010240E80027002FF5D184F89E
:101E40004230256320680C3050E8002F22F0100249
:101E500040E80023002BF5D166632046FFF707FF1B
:101E6000F8BDFFE705062BD5150629D594F84100E6
:101E70002128F5D1A068B0F5805F01D12069B0B10B
:101E8000206A411C2162216800784860E08C401E75
:101E90000004000CE084E3D12068C16821F08001D7
:101EA000C1602068C16841F04001C160D8E7206A84
:101EB0000088C0F308004860206A801C2062E5E7C3
:101EC0004006CDD55006CBD5CA68204622F0400248
:101ED000CA6084F8413000F0E2F8C1E7CF2400087E
:101EE00070B5040004D094F84100002510B106E05C
:101EF000012070BD84F84050204600F023F82420D3
:101F000084F841002068C16821F40051C160204676
:101F100000F06EFB2068016921F4904101612068A6
:101F2000416921F02A0141612068C16841F40051F2
:101F3000C1606564202084F8410084F84200656334
:101F4000002070BD30B585B0002400940194029447
:101F500003940068184988422CD11848816941F4DB
:101F600080418161816901F480410491816941F07E
:101F7000040181618069124D00F0040004904FF467
:101F800000700090022001900320039069462846CB
:101F9000FEF71AFF2815CDE9000469462846029489
:101FA000FEF712FF002211462520FFF773F82520C7
:101FB000FFF762F805B030BD003801400010024064
:101FC0000008014010B500680B49884212D10B4C43
:101FD000206900F0E5FF607064231422611C08484A
:101FE00000F010F864230122A11CBDE81040044851
:101FF00000F008B810BD00000038014000000020CB
:10200000C40000202DE9F843044690F841001F4623
:1020100016460D46202802D00220BDE8F8837DB187
:1020200076B100206064212084F84100FEF7C6FFED
:10203000A6848046E684A068B0F5805F02D003E005
:102040000120EAE7206910B12E4600250EE00026A7
:102050000CE08021204600F027FBA0B9AEB116F8B5
:10206000010B21684860E08C401EE084E08C434610
:102070004FF0000200970028EBD14FF040012046BE
:1020800000F012FB30B10320C7E735F8020BC0F3B4
:102090000800E6E7202084F841000020BDE77047F3
:1020A000FEE7000030B585B000200090019002905E
:1020B00003901E48816941F004018161816901F04A
:1020C00004010491816941F0080181618069184D22
:1020D00000F008000490002220212846FEF769FF46
:1020E00020200124CDE900040220CDE90240694608
:1020F0002846FEF769FE502000900E48CDE9010405
:1021000069460D48FEF760FE002211460A20FEF7E0
:10211000C1FF0A20FEF7B0FF002211461720FEF78C
:10212000B9FF1720FEF7A8FF05B030BD0010024030
:102130000008014000003110000C014010B58AB0C9
:10214000002407941C2168460894FEF751F81948AA
:102150004FF0804101600B21C0E901146421C0E906
:1021600003148461FFF7A3FC08B172B6FEE707947D
:1021700007A910480894FFF741FA08B172B6FEE7C4
:102180006020CDE9000402940022694609480494C5
:10219000FFF727FC08B172B6FEE70422694605483E
:1021A000FFF71FFC08B172B6FEE70248FFF7F4FB29
:1021B0000AB010BD3400002010B586B000241748C6
:1021C00000940194029403940494134905940160CB
:1021D00045F6BF51C0E901140421C0E9031484612C
:1021E000FFF740FA08B172B6FEE74FF48050009056
:1021F00069460A48FFF7AEFA08B172B6FEE70494E2
:1022000004A906480594FFF7F9F9002801D072B631
:10221000FEE706B010BD0000000800407C00002072
:10222000FEE7FEE770477047FEF7CEBE10B590B0F0
:1022300028216846FDF7DCFF14210AA8FDF7D8FF26
:1022400002200090012004901020002405900794A3
:102250006846FFF72DF808B172B6FEE70F20CDE90A
:102260000A040C940D9400210AA80E94FEF744FF72
:10227000002801D072B6FEE710B010BD7047000014
:102280000148FFF7D6BA0000340000200148FFF7EC
:10229000D0BA00007C000020F0B50268164B174C45
:1022A000174D4FF08047984205D0B84203D0A04266
:1022B00001D0A84203D122F070064A683243984206
:1022C00005D0B84203D0A04201D0A84203D122F4E5
:1022D0004074CA6822434C6922F0800222430260A3
:1022E0008A68C2620A688262984201D10969016300
:1022F00001214161F0BD0000002C014000040040BC
:102300000008004010B501F01F030121046A994044
:102310008C430462016A9A401143016210BD10B5FA
:10232000846842EA032224F47F440A432243826001
:1023300010BD826822F070020A4342F007018160FA
:102340007047000030B5036A026A22F0010202629F
:102350004268846924F073050C682C4323F002055D
:102360008B682B430A4DA8420BD123F00805CB689C
:1023700022F440722B434D6923F0040315438A690C
:102380002A434260846149684163036230BD0000B2
:10239000002C014030B5026A036A23F01003036287
:1023A000436884690D6824F4E64444EA05248D6892
:1023B00022F0200242EA05120B4DA8420ED1CD6850
:1023C00022F0800242EA05124D6923F4406343EA99
:1023D00085038D6922F0400243EA850343608461EE
:1023E00049688163026230BD002C014030B5036A48
:1023F000026A22F4807202624268C46923F40073A4
:1024000024F073050C682C438D6843EA05230C4DBA
:10241000A8420ED1CD6823F4006343EA05234D6939
:1024200022F4405242EA05128D6923F4806342EAA5
:1024300005124260C4614968C163036230BD000097
:10244000002C014030B5046A026A22F48052026214
:102450004268C3690D6823F4E64343EA05238D68A7
:1024600024F4005444EA0534064DA84204D14D69D1
:1024700022F4804242EA85124260C36149680164E5
:10248000046230BD002C014010B5036A046A24F0D8
:1024900001040462846924F0F00444EA021423F085
:1024A0000A020A438461026210BD10B5036A046A1D
:1024B00024F010040462846923F0A00324F470441F
:1024C00044EA023243EA01118261016210BD10B593
:1024D000406A0021C185C184FFF7CAFB10BD0168B5
:1024E0000C3151E8002F22F4907241E80023002BB8
:1024F000F5D10168143151E8002F22F0010241E8C2
:102500000023002BF5D1016B012909D101680C31A1
:1025100051E8002F22F0100241E80023002BF5D1F2
:10252000202180F8421000210163704708B590F81F
:102530004210222901D0022008BD82684FF4805346
:102540009A4201D1016921B1816A9A421BD04AB1F4
:102550000AE00268816A5268C2F308020A80816A4E
:10256000891C08E0026972B10268526802F07F02B9
:102570000A70816A491C8162C18D491E0904090CD7
:10258000C18503D01BE002685268F1E70168CA68A0
:1025900022F02002CA600168CA6822F48072CA6010
:1025A00001684A6922F001024A61202180F8421044
:1025B00000214163026B012A03D0FFF703FD0020D5
:1025C00008BD016301680C3151E8002F22F01002B0
:1025D00041E80023002BF5D101680A68D20602D534
:1025E0000A6849680091818DFFF741FBE7E7000029
:1025F00070B5044600680169E26821F44051114356
:1026000001612169A0680843616908432168CA68BB
:1026100041F20C639A430243CA6020684169A2698F
:1026200021F44071114341611E492068884202D162
:10263000FEF708FE01E0FEF7F5FD00EBC00101EB3F
:102640000012606864218000B2FBF0F3B3FBF1F389
:102650006FF018067343B2FBF0F5B2FBF0F605EB32
:102660008305322303EB0515B5FBF1F5B6FBF1F657
:1026700005F0F00505EB0615B2FBF0F6B2FBF0F045
:10268000B0FBF1F06FF01802504306EB800003EB53
:102690000010B0FBF1F0216800F00F0028448860C2
:1026A00070BD0000003801402DE9F0419846174602
:1026B0000E460446069D27E0681C25D02DB1FEF786
:1026C0007DFCA0EB0800A8421ED920680C3050E821
:1026D000001F21F4D07140E80012002AF5D12068D3
:1026E000143050E8001F21F0010140E80012002AD8
:1026F000F5D1202084F8410084F84200002084F8BD
:1027000040000320BDE8F0812068006836EA000040
:1027100004D00020B842CFD00020F3E70120F9E731
:102720000148FFF7A7BA0000C4000020FEE7090730
:10273000090E002804DB00F1E02080F80014704747
:1027400000F00F0000F1E02080F8141D7047000039
:1027500013B56423012269460248FFF753FC009831
:102760001CBD0000C4000020FEF736FCFFF75EFD34
:10277000FFF798FCFFF7E2FCFFF71EFD1D481C4920
:102780000C2201604FF41651416000218160C1604C
:10279000C0E904128161C161FFF7A2FB08B172B602
:1027A000FEE7144800219038FFF7CCF911480421C6
:1027B0009038FFF7C7F90F484838FEF79FFF0EA083
:1027C000FDF70AFD134C206900F0EAFB60706423FA
:1027D0000422611C0748FFF715FC064C4FF47A757C
:1027E000903C32262846FEF7CFFA20684663F9E788
:1027F00000380140C400002053544D333220686536
:102800006C6C6F2066726F6D207072696E74660DED
:102810000A0000000000002021F00042A2F16052F6
:10282000B2F5801F01F0004328BFD2F17F6C0BD9B5
:102830005FEA001C43EAC20242EB507018BF7047C7
:1028400028BF20F001007047B2F5801FBCBF1846BA
:1028500070474FEA410C1CF5001F02D2084600F0F9
:1028600004BC70B500F024FA00000089FFF7F6BF41
:102870004FF00040A0F58000704700002DE9C041F6
:1028800030B4DFF8A0C23CEA111418BF3CEA1314BC
:1028900000F0EC8081EA03051CEA111444EAD574C7
:1028A00018BF1CEA131500F0C780A4EB05044FF015
:1028B000004545EAC12145EAC32341EA505143EAB4
:1028C000525304F17F74994204F500344FEAC0205A
:1028D0004FEAC22208BF904200F09C804FEA136585
:1028E0000FF24016765D4FEA134506FB05F7C7F178
:1028F000807706FB07F74FEAD737A7FB03687642D6
:10290000C8F58038A7FB06CE38BFA8F1010807FB41
:1029100008E64FF0000EA6FB028CE6FB03CEDCF1CE
:10292000000CCEF1004E38BFAEF1010EA6FB0C58E4
:102930004FF000074FF00005E6FB0E87A1FB08C62D
:10294000A0FB07CE16EB0E0645F10005E1FB07657F
:1029500015F1E04E7EBFA4F580345FEA46066D4176
:1029600016F1800745F100054FEA17274FEA066682
:1029700047EA0567A6F1DE46B6F1805F4FEA152506
:102980001FD9384624F0010C05EBC471BCF1FE6F71
:1029900001EB0C1102D8F0BCBDE8008124425CBF01
:1029A00001F5801E9EEAC47F02D4F0BCBDE8008120
:1029B000244238D4F0BCA1F1C041BDE8004100F090
:1029C000C5B94FEAD22242EA43524FEAD323A7FBCA
:1029D00002864FEAD02040EA415007FB03661EEA18
:1029E0000E0F4FEAD12105FB026658BFA6EB005639
:1029F000B6EB00564FEA520E4EEAC37E18EB0E0EAF
:102A000056EB530EBDD518EB02085E417F1C55F105
:102A10000005B6E74FF480154FF000074FF00006B1
:102A20004FF00008ADE7F0BC4FF0000001F1C041ED
:102A300001F00041BDE8008111EA0C1F0CEA1315FA
:102A400000D00CE013EA0C1F00F025804FF00000CE
:102A5000F0BC81EA030101F00041BDE80081F0BC57
:102A6000BDE8004181EA030100F070B9F0BCBDE8A7
:102A7000004170B500F01CF9097EFC3E00F007B87B
:102A800081EA03014FF0000001F00041704781EA44
:102A9000030100F05BB9F0BCBDE800414FF000005D
:102AA00021497047FFFDFBF9F7F5F4F2F0EEEDEB8D
:102AB000E9E8E6E4E3E1E0DEDDDBDAD8D7D5D4D33C
:102AC000D1D0CFCDCCCBCAC8C7C6C5C4C2C1C0BF88
:102AD000BEBDBCBBBAB9B8B7B6B5B4B3B2B1B0AF8E
:102AE000AEADACABAAA9A8A8A7A6A5A4A3A3A2A172
:102AF000A09F9F9E9D9C9C9B9A999998979796952D
:102B000095949393929191908F8F8E8E8D8C8C8BC8
:102B10008B8A898988888787868585848483838250
:102B2000828181800000FF070000F87F10F00042E2
:102B300048BF4042B0FA80F310FA03F10AD0C3F163
:102B40001D0303F580634FEA415002EB035202EB91
:102B5000D12170474FF0000070470000DFF848C1F6
:102B600070B51CEA111E1EBF1CEA13159EEA0C0F5D
:102B700095EA0C0F00F06F8081EA030423EA4C13FE
:102B80004EEAD47E21EA4C1141F4801143F48013C3
:102B9000AE44A1FB024CA0FB0365AEF17F7E36196B
:102BA00055EB0C05A1FB034C4CF10003A0FB021CF0
:102BB00016EB0C06654153F10003094218BF46F0BD
:102BC000010613F4007F0BD14FEA03314FEA0530C1
:102BD000340341EA155140EA16506FF003020AE04F
:102BE0004FEAC3214FEAC520F40241EA555140EAB9
:102BF00056506FF0020202EB2E4201EB025585EABD
:102C0000CE710AD05FEA440C18BF24F0004450F1A2
:102C1000000041F1000120EAD47040F2FE7C6245E0
:102C200000D270BDA84214BF4FF080444FF0404422
:102C3000002E08BF0024BEF1806FA8BFA1F1C041E3
:102C4000BDE8704080F282804FF0000001F1C04189
:102C500001F0004170479EEA0C0F0CEA131518BFF3
:102C600095EA0C0F06D04FF0000081EA030E0EF03B
:102C7000004170BD00F01CF88900013E00F007B86B
:102C800000F009B84FEA430C5FEA5C5C08D081EAC7
:102C9000030100F05BB84FEA410C5FEA5C5CF6D1DF
:102CA0004FF00000014970470000FF070000F87F67
:102CB0000EF1020E2EF0030E5EF8046B364205D4C0
:102CC000012A43EB030515F5001F12D8012841EB3B
:102CD000010C1CF5001F0CD80ED14FEAD17C15F564
:102CE000001F0CEB4C0C0CF1020C08BF4CEBD37C1E
:102CF00004E04FF0080C01E04FEAD37C0CEB4C05EC
:102D000026FA05F606F00706B6F1040C06D20EEB1D
:102D1000860CBDE870404CF0010C6047DFE80CF019
:102D2000090B02024FF000414FF00000A1F5002115
:102D300070BD19461046012851EB010418BFD4F5A7
:102D4000001484BF002001F0004170BD0808A0F508
:102D500000114FEA3101704790EA010F48BF81F03E
:102D6000004100F18E81421A3CBF801A89184FEA57
:102D7000D0524FF07F4C1CEA410FA2EBD15318BF49
:102D80009CEA026F00F03B804FF0004C4CEA0020C0
:102D90004CEA012121FA03FC10EB0C0C1ED202F1CB
:102DA000FF325FEA1C2040EBC25038BF70471CF076
:102DB0007F0F4FEA400C18BFBCF17F4F38BF704700
:102DC000C3F12003994008BF20F00100BCF17F4F00
:102DD00038BF7047A0F1C04000F047B94FEA3C004F
:102DE000000A40EBC25028BF1CF0FF0F4FEA400C16
:102DF000E6D018BFBCF17F4F38BF7047EAE79CEAC6
:102E0000026F05D010EA5C0F08BF00F00040704769
:102E100010B500F0E4F800BF64FBBE3E4FF47F0C39
:102E20001CEAD0121EBF1CEAD11392EA0C0F93EADF
:102E30000C0F00F0858090EA010F48BF42F48072C9
:102E400040F4000C41F400002CF07F4120F07F4062
:102E500000B58142A2EB03020FF2081CACEB504E0E
:102E6000C0F100009EF800E04FEA4E0E00FB0EFCA1
:102E700038BF49004FEA2C1C02F5FA020CFB0EF396
:102E80004FEACE1E4FEA112C4FEAC1210EEB635ED2
:102E900042EB22420EFB0CFC4FEA1C5300FB0311D9
:102EA0004FEA112C4FEA01310EFB0CFC4FEADC4CCF
:102EB00000FB0C11C14228BF09184CEB03335DF82D
:102EC00004EB10EB410143EBC250B2F57C0F38BF6D
:102ED000704729D512F0F00F1CBF00F1C04000F080
:102EE00000407047008182838485868788898B8C27
:102EF0008D8E8F919293959697999A9C9D9FA0A263
:102F0000A3A5A7A8AAACAEB0B2B3B5B7B9BCBEC0B2
:102F1000C2C5C7C9CCCED1D4D7D9DCDFE2E6E9EC53
:102F2000F0F3F7FAFE0000004FEA400C0CF1807C51
:102F3000BCF17E4F28BF7047B0F1C04000F095B89B
:102F400090EA010F0CEAD11348BF42F48072624547
:102F500038BF634507D213F47F0F16D080EA010013
:102F600000F00040704710B500F039F8097EFC3ED3
:102F700000F005B880EA010000F00040704780EAE8
:102F8000010000F0004000F070B812F47F0F04BFA1
:102F90000248704780EA010000F067B80000C07F77
:102FA000C10DD1F19E0206DB4FEA002343F000433E
:102FB00023FA02F07047004207D54FEA4001B1F111
:102FC000FE4F02D24FF00000704710B500F007F836
:102FD00049922480002070476FEA200070470EF16C
:102FE000020E2EF0030E5EF8044B244204D44FEA86
:102FF0004102B2F17F4F11D84FEA4003B3F17F4F46
:103000000CD80ED14FEAD07CB2F17F4F0CEB4C0CB8
:103010000CF1020C08BF4CEBD17C04E04FF0080C23
:1030200001E04FEAD17C0CEB4C0324FA03F404F0EA
:103030000704B4F1040C06D20EEB840CBDE810407A
:103040004CF0010C6047DFE80CF0070802024FF07B
:103050000040A0F5800010BD0846420018BFD2F124
:10306000807288BF00F0004010BDFF2141EAD050BF
:10307000C005704790EA010F48BF81F000413FF55D
:1030800072AE421A04D882F00042A0EB0200114452
:103090004FEAD0524FF07F4C1CEA410FA2EBD153C4
:1030A00018BF9CEA026F4AD04FF0004C4CEA002057
:1030B0004CEA012121FA03FCB0EB0C0C0FD412F006
:1030C000FE0F36D05FEA4C001DD5001240EBC25017
:1030D00038BF70471CF03F0F18BF70470BE0A2F1DC
:1030E00001025FEA1C2040EBC25038BF70471CF061
:1030F0007F0F18BF7047C3F12003994014BF401ED3
:1031000020F00100704780084FEA122308BF704783
:10311000B0FA80FCA2EB0C02CCF1280C60FA0CF0A7
:1031200093EA122F04BF00EBC25070474FEAC370FE
:103130007047130A5FEADC1008BF7047F6E79CEAA5
:10314000026F04D010EA5C0F08BF0020704710B572
:10315000FFF745FF40DFF63E81F000407047010277
:1031600002030405060708090A0B0C0D0E0F1010C8
:103170000000000000000000010203040607080927
:1031800000000000010203043A7474003A747400F1
:103190003A747400B43100080000002034000000CC
:1031A00028010008E83100083400002084080000ED
:1031B00044010008000000000000000000000000C2
:1031C00000000000000000000000000001000000FE
:1031D00010000000000000000024F40000000000C7
:0831E0000000000000000000E7
:04000005080000ED02
:00000001FF
