:020000040800F2
:1000000078080020B1010008C3300008232F000841
:10001000C1300008651A0008D9350008000000004A
:10002000000000000000000000000000C7300008D1
:10003000671A000800000000C5300008C930000839
:10004000CB010008CB010008CB010008CB01000860
:10005000CB010008CB010008CB010008CB01000850
:10006000CB010008CB010008691A0008CB01000889
:10007000CB010008CB010008CB010008CB01000830
:10008000CB010008CB010008CB010008CB01000820
:10009000CB010008CB010008CB010008F51A0008CD
:1000A000CB010008CB010008CB010008CB01000800
:1000B0002D310008CB01000839310008CB010008C0
:1000C000CB010008CB010008CB010008CB010008E0
:1000D000CB010008CD350008CB010008CB0100089A
:1000E000CB010008CB010008CB01000800F002F8AA
:1000F00000F04FF80AA090E8000C82448344AAF173
:100100000107DA4501D100F044F8AFF2090EBAE870
:100110000F0013F0010F18BFFB1A43F0010318473B
:10012000C43D0000E43D0000103A24BF78C878C107
:10013000FAD8520724BF30C830C144BF04680C60ED
:10014000704700000023002400250026103A28BF35
:1001500078C1FBD8520728BF30C148BF0B60704739
:10016000662903F0E885002070471FB59DE803006D
:1001700000F082FE00F01AFB04000020002103F0D2
:10018000A7FAE06000F02AFC1FBD10B500F08FFC5C
:1001900010BD00F0F7FC1146FFF7E7FF03F054FA3B
:1001A00000F0FCFD03B4FFF7F0FF03BC00F0F6FF26
:1001B0000948804709480047FEE7FEE7FEE7FEE7FB
:1001C000FEE7FEE7FEE7FEE7FEE7FEE70448054937
:1001D000054A064B7047000029310008ED00000871
:1001E000780200207808002078040020780400209D
:1001F0000FB4044910B503AA029800F0C5FA10BC68
:100200005DF814FB6C0100202DE9F0474FF0000A67
:1002100089460446C0F820A02046E16888470028A7
:1002200076D0252806D0D4E901219047206A401CC9
:100230002062F1E7E168204600258847C4F81CA049
:1002400006460027C4F818A02A2E09D0304603F02D
:10025000E8F938B304EB8708303EC8F8186019E0B5
:1002600059F8041B204604EB87029161E168884736
:10027000012F064618D1E069002820DA25F0200574
:100280001DE0D8F8180000EB800006EB4000303885
:10029000C8F818002046E1688847064603F0C1F90F
:1002A0000028EED1012F0AD02E2E08D12046E16879
:1002B00088477F1C0646022F45F02005C4DBA06955
:1002C000002803DA404245F00105A061E80701D0AB
:1002D00025F01005B6B1A6F14100192802D8203644
:1002E00045F400654A463146204625604D46FFF7F5
:1002F00037FF58B1012806D0ED1D25F0070000F1A9
:10030000080989E704E005F1040985E730468AE732
:10031000206ABDE8F0874FF0000200B5134694460E
:100320009646203922BFA0E80C50A0E80C50B1F14D
:100330002001BFF4F7AF090728BFA0E80C5048BF61
:100340000CC05DF804EB890028BF40F8042B08BFFF
:10035000704748BF20F8022B11F0804F18BF00F8FB
:10036000012B704770477047704770472DE9FF4F6A
:100370000C461E464FF0FF378BB0D2E90001DDF886
:1003800060800A908A46C1F30A5505B93D460021AE
:1003900008464FF00000BAF1000F00F4400005DA03
:1003A00000EB80004FF4400101EA50004FEA905901
:1003B000B9F1010F00DDB9460A9850EA4A000ED0A3
:1003C00044F61050A5F2FF3545432F14B8F1000F45
:1003D0001ED07542291E1EDDC9F100021CE0B8F1D5
:1003E000010F4FF0000001D0302103E0F24305E09F
:1003F0002154401CB042FBDB304600220021215436
:100400000B99C1F80880C1E900200FB0BDE8F08F5A
:10041000BD1B6D1CDEE74A4600DA694206A800F003
:1004200067FA06AB93E8070003AB83E80700504682
:100430000A9900F04FFF8DE80700A0F500501F3823
:1004400000900398002D0ADD42F21F014A4608443D
:10045000002303A90390684601F0B8F909E0A0F56C
:1004600000504A461F38002303A90390684601F054
:10047000C2F98DE807000004000C03D04FF0FF30F4
:10048000410800E01046B8F1000F03D000220092AE
:1004900015461EE0751E05D400F08CF93032625509
:1004A0006D1EF9D5B3460122084302D000227F1CFD
:1004B00004E02078302801D100227F1E002A09970D
:1004C00084D01DE0112D07DA00F074F93032625546
:1004D0006D1C50EA0102F5D1084302D00098C8B162
:1004E0000EE00021681E05E0235C625C6354225428
:1004F000401E491C8142F7DBAB46A81B401E0990F9
:10050000002004F80B000B98099AC0F80880C0E995
:10051000002B7AE711264FF0000857E72DE9F04F3E
:1005200088460446D21D22F0070191B0D1E90001AE
:10053000CDE90A0103F051F802460B98C00F01D033
:100540002D2007E02068810701D52B2002E0202123
:1005500001EAC000032A099001D0072A05DB0346FF
:100560004146204600F084F90BE12078800601D551
:10057000E06900E00620B8F1650F814606D0B8F1C9
:10058000660F18D0B8F1670F70D131E00020B9F1D3
:10059000110F009001DB112301E009F101030AAA08
:1005A00001A90CA8FFF7E2FEDDE90C70002609F1B5
:1005B0000105834647E001204B4600904FF000477D
:1005C0000AAA01A90CA8FFF7D1FEDDE90DB00C992C
:1005D0005D46002610B909F101000D18B9EB0500C0
:1005E00003D4C0F1FF3609F10105A5EB09002BE0AA
:1005F000B9F1010F01DA4FF001090020B9F1110F33
:100600000090484601DD112300E003460AAA01A933
:100610000CA8FFF7ABFEDDE90C704D4600268346C3
:10062000207800070AD4AB4500DA5D4601A8012D09
:1006300004DD411911F8011C302907D04F4502DAB9
:1006400017F1040F04DA012082460FE06D1EEEE779
:10065000002F02DCED1B3E4403E0781CA84200DDC5
:100660007D1CB81B00F1010A4FF0004720780007FD
:1006700003D4AA4501DB4FF0FF3A0021B7F1004F48
:100680000DF143088DF8431024D002202B23002FB6
:1006900001DA7F422D230A21021EA0F1010000DCB5
:1006A0005FB197FBF1FC97FBF1F201FB1C7C174655
:1006B0000CF1300C08F801CDEEE7A8F10100037051
:1006C0002188090501D5452100E06521A0F1010837
:1006D00000F8011C09980FA9A1EB0807FF1D00B144
:1006E0000120411901EBEA70A1693844081A401E43
:1006F000A0612078C00602D42046AFF3008009989C
:1007000028B1D4E901219047206A401C206220785A
:10071000C00622D52046AFF300801EE0002E04DB89
:10072000B34502DD01A8805D00E03020D4E901215D
:100730009047206A401C2062761CAAF101005FEA03
:10074000000A0AD100F032F8C0680168405CD4E9C0
:1007500001219047206A401C2062281EA5F1010556
:10076000DCDC07E0D4E9012118F8010B9047206A8E
:10077000401C2062381EA7F10107F3DC2046AFF3CE
:100780000080032011B041E6074B70B50D467B4455
:1007900000F05BF80446284600F01CF910B14FF059
:1007A000FF3070BD204670BD9F2E0000004870478E
:1007B0003402002030B5B0F10A024FEA900E71F118
:1007C00000034EEA817EB0EB0E0061EB91014FEA2F
:1007D000101E4EEA017E10EB0E0041EB11114FEAA4
:1007E000102E4EEA016E10EB0E0041EB11214FEA84
:1007F000104E4EEA014E10EB0E0041EB1141401835
:1008000041F100014FEAD00040EA41704FEAD101C6
:1008100010EB80054FEA810444EA907444EB010434
:100820006D1944EB0404521BA3414FF0000348BF71
:100830000A3200D530BD401C41F1000130BD00003E
:1008400001694A1C02610878704700B58FB0CDE994
:1008500001310021059105497944CDE90310114684
:100860006846FFF7D1FC0FB000BD0000E5FFFFFFB9
:100870002DE9F0411F46044603260168072A01F4CA
:10088000006004DB08B116A505E016A503E008B179
:1008900015A500E015A521F010002060A069C01E7C
:1008A000A0610FB1401EA0612046AFF300804FB1A0
:1008B000D4E9012138469047206A401C2062C01CC0
:1008C000206206E0206AFAE7D4E9012115F8010B5D
:1008D0009047761EF8D22046AFF30080BDE8F08145
:1008E0004E414E006E616E00494E4600696E6600D4
:1008F0002DE9F047814616468AB0354878440DC840
:100900008DE80D0032487844801C03AC0DC884E8A3
:100910000D0041F69B300844372190FBF1F290FB2B
:10092000F1F5A5F1800501FB12041B3C02D56442E0
:10093000012000E00020DFF898A080460027FA445C
:10094000AAF1BE0A0EE0E0070AD03246684607EB7D
:10095000470101230AEB810100F04DFF8DE80700FC
:1009600064107F1C002CEED1194F7F44AE3F19E07C
:10097000E80715D007EB04100DF1180A90E80E00F7
:100980008AE80E00C068F04201D1981908903246FA
:10099000012306A903A800F02EFF03AB83E807009C
:1009A0006D10641C002DE3D14FF0010332466946FF
:1009B000B8F1000F03A802D000F008FF01E000F03A
:1009C0001AFFC9E90001C9F808200AB0BDE8F0879C
:1009D000C0350000007B00F08000704710B5424831
:1009E0005421FFF798FC41485421FFF794FC4048FC
:1009F0005421FFF790FC3F493B483C4A3F4B08607D
:100A00003D490A603A491960531C0365481C10654A
:100A1000012008653B48344A39A1784400F022F9A6
:100A200020B9384878440A3800F0C1F937482F4ACD
:100A300035A1784400F016F920B9344878440A38D2
:100A400000F0B5F932482A4A2FA1784400F00AF99B
:100A500020B92F4878440A3800F0A9F940232248E9
:100A6000DC000021224600F0D9F820B12548784466
:100A7000543800F09CF91D4822464023002100F024
:100A8000CDF820B121487844543800F090F9184846
:100A900022461023002100F0C1F8002806D01C488F
:100AA0007844BDE81040563800F081B910BD1048B8
:100AB00070B5006D20F001040B4800F049F90B48B7
:100AC00000F046F90A4800F043F909E0206D20F0F3
:100AD0000105204600F03CF9204600F078F82C464D
:100AE000002CF3D170BD0000180100206C01002023
:100AF000C001002034000020380000203C0000200D
:100B000072000000BA34000077000000A634000034
:100B1000923400000EB5CDE9000100F01FFB0290F9
:100B200069460120ABBE0EBD08B5694600900220A3
:100B3000ABBE08BD1FB58DE8070069460520ABBEFA
:100B400004B010BD1FB58DE80F0069460620ABBE8E
:100B5000F6E708B5694600900920ABBE08BD1CB594
:100B6000CDE9000169460A20ABBE1CBD704708B53F
:100B7000694600900C20ABBE08BD000000487047DD
:100B8000140200207546FFF7F9FFAE4605006946DE
:100B9000534620F00700854618B020B5FFF716FB36
:100BA000BDE820404FF000064FF000074FF000086E
:100BB0004FF0000B21F00701AC46ACE8C009ACE8EF
:100BC000C009ACE8C009ACE8C0098D46704770B5F3
:100BD0000446051F00F034F90068002C14BF446877
:100BE00070BD002C18BFAC423CBF20466468F8D3EF
:100BF00001680A18AA4218BF456003D12A68054651
:100C00001144016028684119A1421CBF6C6070BD8D
:100C10006168696021680844286070BD70B5C46867
:100C2000A50713D0650211D4B2F5807F09D0B2F5C3
:100C3000007F06D0B2F5806F08D1012300F12401B6
:100C400006E05D1E6FF07F46B54201D3012070BD06
:100C50000161C361416024F470611143C1600020EF
:100C600070BD00002DE9F0410C46074616461046BF
:100C700000F06EF82078611C61280AD0722802D03A
:100C800077283CD102E00125002405E00225042458
:100C900002E0082448F2020511F8010B2B2806D0C7
:100CA000622809D011F8010C74280AD00BE045F035
:100CB000030544F00204EFE745F0040544F00104A5
:100CC000EAE744F0100438462146FFF723FF411CB1
:100CD00015D00021316171604FF40071F560F16150
:100CE0007061200704D530460222002100F022F96D
:100CF000306D40F0010030653046BDE8F0810020E5
:100D0000FBE72DE9F0410D460646104C206DC1076A
:100D100004D0410804D020F00104F7E722460EE099
:100D2000542000F0D8F807000ED0206D47F00101E4
:100D30000843542120653846FFF7EDFA3A46294624
:100D40003046BDE8F0418DE70020D6E718010020CD
:100D50002DE9F04704464FF000094FF0FF37C56812
:100D6000D4E90486A80707D0204600F093F930465E
:100D7000FFF7DAFE002802DA3846BDE8F0872805DA
:100D800002D54046FFF723FF4C212046FFF7C3FA68
:100D9000206D20F0010020654846EEE710B50446BE
:100DA000AFF300802046BDE81040FFF7FBB910B557
:100DB00000F0BAF9BDE8104000F0B0B94FF0013CC6
:100DC00050F8042B51F8043B9A4221D1A2EB0C03BA
:100DD000934313EACC1317D150F8042B51F8043B7A
:100DE0009A4215D1A2EB0C03934313EACC130BD117
:100DF00050F8042B51F8043B9A4209D1A2EB0C03A2
:100E0000934313EACC13DBD04FF00000704700BFD0
:100E1000D01A01BAB1FA81F101F0180122FA01F0F9
:100E2000CB40C1F12001DBB2C0B2C01A2CFA01F3F1
:100E3000D11A914311EAC311E6D1704770470000FF
:100E4000004870471C020020704770477047704789
:100E500038B504460A4600206946AFF300800028F2
:100E600008BF38BD02460099204600F0A4F90120D1
:100E700038BD012000F0F3B9F8B5AFF300800546A6
:100E800000200C46102000BF0646A819A0420DD92C
:100E9000324669460020AFF30080070008BF00F02B
:100EA000DEF90098A04218BF0546C419FFF7C8FF35
:100EB00005600746F01D20F007004619284600F09F
:100EC00073F9B44208BFF8BDA21B31463868BDE8CB
:100ED000F84000F070B970B50646FFF7B1FF05683D
:100EE00006F10B0020F00704B4429CBF002070BD47
:100EF0002B466A68BAB11068A04210D304F1080109
:100F000088423CBF5068586007D35168101941604F
:100F10001168091B016058601460101D70BD1346F4
:100F20005268002AE7D121462846FFF791FF0028A2
:100F3000DED170BD2DE9F041044616460D464769E5
:100F4000007B80072ED03846FFF703FE50BB3EB330
:100F5000012E02D0022E25D104E0204600F045F9F2
:100F600005441DE03846FFF702FEE168002841F025
:100F70001001E16005DA204600F058F80120BDE8D4
:100F8000F081C9030BD56268E16A914200D811462D
:100F9000A26911442269891A814200DD084605448C
:100FA000002D01DA0220EAE7E16A6068E268814226
:100FB00006D29103E06203D522F4003141F0100221
:100FC000A6690027AE4213DCE16A814201D90B46D3
:100FD00000E0034603EB060C2369ACEB030CAC45C5
:100FE00006DD814201D98C4600E084469C4505D14E
:100FF000A760276042F02000A5620DE0AD1BE66906
:10100000AE1B8142A66000D90846C01A281A20608B
:101010005819606022F0200003490840E060002079
:1010200084F84870ABE70000BFCFD7FFC16821F458
:10103000001141F08001C1600021816001607047B2
:101040002DE9F047814614460E464FF0FF383248EE
:10105000D5685769054209D03846A169FFF77FFD79
:10106000002811DB2C48C0430540E5602B46324682
:1010700049463846FFF75EFDA16920F00042B21AEA
:1010800011440028A16103D02046FFF7CFFF40465E
:10109000BDE8F08770B504460569C06A616888429A
:1010A00000D80846E16821F42011E160C90312D597
:1010B000A84208D02246411B2846FFF7C1FF10B1C5
:1010C0004FF0FF3070BD0020E562C4E90150E068D8
:1010D00020F48030E060002070BD10B50446C06888
:1010E00020F02000E060A16AA06988420DD020466F
:1010F000FFF7D0FFE06820F4405040F01000E060BF
:10110000A06AA0612069E062606044F24001E0688A
:101110008843E06010BD000010000200002801D0EC
:1011200000F03CB87047000010B5014602A000F086
:101130007DF8012010BD00005349475254524544E8
:101140003A2052656469726563743A2063616E2760
:1011500074206F70656E3A200000000010B5431CCB
:1011600002E010F8011B71B18107FAD14FF0013292
:1011700002C88C1A8C4314EAC211F9D0C01A0A06AC
:1011800003D0C01E10BDC01A10BD0A0401D0801EBD
:1011900010BD0902FCD0401E10BD000001491820FE
:1011A000ABBEFEE72600020000210160C0E901108D
:1011B000704710207047034640688C46002818BFCF
:1011C00088423CBF03464068F8D3186818448842F8
:1011D00007D00CF1030020F00700001D411A521A3D
:1011E0000146081D0A60FFF7F2BC10B50146C2684F
:1011F000900703D0900607D5886A0AE000F03EF811
:1012000001210160881E10BD8B69486818440B6974
:10121000C01A91F848301BB191F84910401A10BD1E
:101220001103FCD50028FADD401E10BD70B505463F
:101230000C460A2000E06D1C00F018F835B1287843
:101240000028F8D102E0641C00F010F814B12078F6
:101250000028F8D1BDE870400A2000F007B810B5AA
:1012600000F010F8BDE81040FFF758BF08B5694618
:101270008DF800000320ABBE08BD00000048704799
:101280001402002010B5012805D0002103A0FFF7AB
:10129000CDFF012010BD09A1F8E7000053494752D6
:1012A000544D454D3A204F7574206F662068656136
:1012B00070206D656D6F7279000000003A204865FE
:1012C0006170206D656D6F727920636F72727570D9
:1012D000746564005FEA400C08BF91F0000F4FEAAC
:1012E0008C234FEAC12243EA51514FEA1C5018BFE8
:1012F00000F5F0404FEA300018BF41F000415FEACE
:101300006C5C00F02980BCF1FF3F08BF40F08040DA
:101310007047130C06BF12044FF0100C4FF0000C76
:10132000130E04BF12020CF1080C130F04BF1201BC
:101330000CF1040C930F04BF92000CF1020CD30FBC
:1013400004BF52000CF1010C11464FF00002A0F155
:101350001F00A0EB0C00704711F0004F08BF704752
:1013600031F000413FF4D5AF0B0C06BF09044FF03C
:10137000100C4FF0000C0B0E04BF09020CF1080C0E
:101380000B0F04BF09010CF1040C8B0F04BF890083
:101390000CF1020CCB0F04BF49000CF1010CCCF195
:1013A0002003A0EB0C0022FA03F302FA0CF241EA4C
:1013B000030100F10100704720F07F4C80EA030038
:1013C00023F07F47ACEB070303F57C5300F00040AC
:1013D00003F1FF032DE980494FEA154B09B44FEAA9
:1013E000144325EA0B4E24EA03480FF2042606EBC9
:1013F000132749083E785FEA320203FB0667C7F508
:10140000000707FB06F64FEA54374FEAD64606F1C7
:10141000020607FB066CCCF1005C4FEA1C472CEA85
:10142000074C07FB06F40CFB06F504EB15464FEAE8
:10143000961634BF00204FF000404FEAD13706FB2C
:1014400007FC4FEA1C4C0CFB0BF7D21B03FB0CF701
:1014500061EB07010CFB0EF7B0EB074072EB174294
:101460000CFB08F734BFA2EB0742B2EB074261EB7B
:1014700017414FEA0C444FEA910706FB07FC4FEA7D
:101480001C4C0CFB0BF7B0EBC74072EB573203FB65
:101490000CF734BFA2EBC742B2EBC74261EB573146
:1014A0000CFB0EF7B0EBC70072EB57720CFB08F7A2
:1014B00034BFA2EBC702B2EBC70261EB5771039FC7
:1014C0004FEA816141EA921104EBCC044FEAD13733
:1014D0004FEA826206FB07FC42EA90124FEA806004
:1014E0004FEA1C4C0CFB0BF7D21B03FB0CF761EB18
:1014F00007010CFB0EF7B0EB074072EB17420CFB39
:1015000008F734BFA2EB0742B2EB074261EB174189
:101510004FEA8C554FEA910704EB9C2406FB07FC2D
:101520004FEA1C4C0CFB0BF7B0EBC74072EB573289
:1015300003FB0CF734BFA2EBC742B2EBC74261EB2F
:1015400057310CFB0EF7B0EBC70072EB57720CFB78
:1015500008F734BFA2EBC702B2EBC70261EB5771C9
:1015600015EB4C254FEA816141EA92114FEA826204
:101570004FEAD13742EA901206FB07FC44F100041F
:101580004FEA80604FEA1C4C0CFB0BF7D21B03FBAD
:101590000CF761EB07010CFB0EF7B0EB074072EBA9
:1015A00017420CFB08F734BFA2EB0742B2EB07422D
:1015B00061EB174115EB1C154FEA813141EA92416D
:1015C0004FEA823242EA90424FEA80304FEA0C768C
:1015D00044F1000448EA03434EEA0B484FF0000E82
:1015E000B2EB080C71EB030724BF624639464EEBA1
:1015F0000E0E4FF0000B0018524149414BEB0B0B04
:10160000B2EB080C71EB03077BF1000B24BF6246C1
:1016100039464EEB0E0E4FF0000B00185241494177
:101620004BEB0B0BB2EB080C71EB03077BF1000BE0
:1016300024BF624639464EEB0E0E51EA020718BF30
:1016400046F0010616EB0E7655F1000254F100014A
:1016500003D5BDE88901BDE80088BDE88901BDE882
:101660000048B619524141EB0101A3F10103704753
:1016700080807F7E7D7C7B7A7978777676757473CF
:10168000727171706F6E6E6D6C6C6B6A6A6968688E
:10169000676666656464636362616160605F5F5E24
:1016A0005E5D5D5C5C5B5B5A5A595958585757569A
:1016B00056555555545453535252525151505050FF
:1016C0004F4F4F4E4E4D4D4D4C4C4C4B4B4B4A4A51
:1016D0004A49494948484847474747464646454595
:1016E00045444444444343434342424242414141CE
:1016F000002B9C4630D477002BD01CB54FEA37071F
:1017000003B44FF010004FF01001BAF1000F06D0F3
:10171000BCF1000FDCBF40F0080040F008014FF0C2
:1017200000000FBCBDE810400BF1010BBBF1010F35
:1017300008BF5FEA170722BF12F1010211F1010190
:101740004FF0004143F1000300F0004043EA000085
:101750007047F9D35708D0E746EA064613F1400F21
:101760004FEA16461FDD13F1200FDFBF16430A466E
:10177000002120335B42BED0C3F1200746EA064673
:1017800002FA07F74FEA164646EA0706C3F12007B2
:1017900022FA03F201FA07F721FA03F14FF00003EE
:1017A00042EA0702A7E746EA020646EA06464FEA89
:1017B000164646EA0106BCBF46EA0646360C4FF01E
:1017C00000034FF000024FF0000194E72DE9804C38
:1017D0009A46934670B491E8380007C831EA400C45
:1017E00048BF34EA430C03D5FFF7E6FDFFF780FF5F
:1017F000F0BCBDE8008C2DE9804C9A46934670B44D
:1018000091E8380007C810F0804F08BF13F0804FF0
:1018100003D100F005F8FFF76BFFF0BCBDE8008CCA
:1018200020F07F4780EA030023F07F4C07EB0C0396
:10183000A3F57C5300F00040A3F1FE0392F0000FEB
:1018400000F0B38095F0000F00F077802DE901499A
:101850004FEA11404FEA144621EA004800FB06FC1B
:1018600024EA064708FB06F607FB08F800FB07F723
:1018700018EB06484CEB164C4FEA124B18EB074896
:101880004FEA15464CEB174022EA0B4E0BFB06FCC9
:1018900025EA06470EFB06F607FB0EFE0BFB07F7D5
:1018A0001EEB064E4CEB164C4FF000061EEB074E9F
:1018B0004CEB174B18EB0B0840F1000018EB0E0B2C
:1018C00058EB000840F100008F1A4FF000013CBFB8
:1018D000C943661B14BFB5EB040C00213CBFC943D0
:1018E000F61B4FEA17444EEA8E0E27EA04454FEAEC
:1018F0001C4704FB07622CEA074C05FB07F70CFBAF
:1019000005F604FB0CFC16EB074642EB174216EB00
:101910000C4642EB1C421BEB060658EB020241410F
:1019200046EA9E0601D5BDE80189B619524141EB50
:101930000101A3F10103BDE801894FEA14454FEA13
:10194000114724EA054621EA074C05FB07F406FB8C
:1019500007F70CFB06F105FB0CFC11EB074144EB10
:1019600017444FEA124711EB0C4144EB1C4422EAA6
:10197000074C05FB07F206FB07F70CFB06F605FB19
:101980000CFC16EB074642EB174216EB0C4642EBFB
:101990001C456A1854F1000148BF7047B6195241FE
:1019A00041EB0101A3F10103704795F0000F37D01F
:1019B0004FEA11424FEA144721EA024624EA074C53
:1019C00002FB07F106FB07F70CFB06F402FB0CFC1D
:1019D00014EB074441EB17414FEA154714EB0C4455
:1019E00041EB1C4125EA074C02FB07F506FB07F714
:1019F0000CFB06F602FB0CFC16EB074645EB174505
:101A000016EB0C4645EB1C42121951F1000148BF80
:101A10007047B619524141EB0101A3F10103704730
:101A20004FEA14454FEA114724EA054621EA074CDC
:101A300005FB07F106FB07F70CFB06F24FF000066B
:101A400005FB0CFC12EB074241EB174112EB0C4279
:101A500051EB1C4148BF7047921841EB0101A3F1C3
:101A600001037047FEE7704770B5204D10212846EE
:101A700000F006FA40EA44044021284600F000FA4B
:101A800040EA440010F00301194806D0012920D093
:101A9000022922D0032909D123E00278012A02D1A8
:101AA0008288521C01E08288521E82800170C188A7
:101AB0000022491CC180B0F90410B1F5667F02DC38
:101AC00011F5667F00DA8280BDE87040102000F0DA
:101AD000DBB80278032AE6D1E2E70278002AE2D1F5
:101AE000DEE70278022ADED1DAE70000000C0140CE
:101AF0000000002070B5204D1021284600F0C0F9EC
:101B000040EA44044021284600F0BAF940EA440083
:101B100010F00301194806D0012920D0022922D053
:101B2000032909D123E00278012A02D18288521CBC
:101B300001E08288521E82800170C1880022491C07
:101B4000C180B0F90410B1F5667F02DC11F5667F43
:101B500000DA8280BDE87040402000F095B802783D
:101B6000032AE6D1E2E70278002AE2D1DEE7027832
:101B7000022ADED1DAE70000000C0140000000205C
:101B800010B590F821100022022905D004218163AC
:101B900080F82020012010BD01680B6823F00E039F
:101BA0000B6001680B6823F001030B6090F8403074
:101BB000C46B012101FA03F3636080F8211080F8FF
:101BC0002020104610BD000010B590F82110002410
:101BD000022903D00421816301243DE001680A68E1
:101BE00022F00E020A6001680A6822F001020A600F
:101BF0001A4A0168914201D1012121E0174A1432A9
:101C0000914201D110211BE0144A2832914201D1A6
:101C1000891515E0114A3C32914201D189140FE037
:101C20000E4A5032914202D14FF4803108E00B4A03
:101C30006432914202D14FF4801101E04FF0807183
:101C4000064A083A5160012180F82110002180F8ED
:101C50002010416B01B18847204610BD08000240AA
:101C600070B5044600F016F90546601C02D0044821
:101C70000078044400F00EF9401BA042FAD370BD76
:101C80002400002070470000044910B50A68024291
:101C900002D00860FFF7F6FF10BD000014040140F9
:101CA0002DE9F84FDFF8B8910024A9F1040B234681
:101CB0000F2709F1040AABF1040EC9E00125A54084
:101CC0002A40AA427DD1674ED1F804C0ACEB060889
:101CD000B44532D014DCBCF1030F3AD009DCBCF1BE
:101CE000000F2AD0BCF1010F1CD0BCF1020F31D182
:101CF0001DE0BCF1110F17D0BCF1120F2AD119E071
:101D0000B8F5881F19D006DCB8F5803F15D0B8F5B6
:101D1000801F1FD111E0B8F5001F0ED0B8F5041FC9
:101D200018D10AE0CB6815E0CB681B1D12E0CB6828
:101D300008330FE0CB680C330CE08B682BB1012B20
:101D40004FF0080303D0456104E0042302E005617D
:101D500000E00023FF2A01D8064601E000F1040656
:101D60004FEA840501D9A5F12005D6F8008007FACD
:101D700005FC28EA0C0803FA05F548EA0508C6F848
:101D800000804D68ED0062D5374DAE6946F0010622
:101D9000AE61AD6924F0030605F001050095334DF1
:101DA00006EB050CDCF80850A607360F07FA06F814
:101DB00025EA0805DFF8B880404503D14FF0000858
:101DC00017E044E0DFF8AC80404502D14FF0010855
:101DD0000FE0DFF8A480404502D14FF0020808E090
:101DE000DFF89880404502D14FF0030801E04FF042
:101DF000040808FA06F848EA0508CCF808804D6897
:101E0000D9F80060ED024D4601D5164300E0964337
:101E10002E604D68DAF80060AD02554601D51643D4
:101E200000E096432E604D68DBF80060AD035D4630
:101E300001D5164300E096432E604D68DEF8006041
:101E4000ED03754601D5164300E096432E60641CF1
:101E50000D682A46E5407FF431AFBDE8F88F0000F9
:101E60000804014000001110001002400000014071
:101E700000080140000C0140001001400014014026
:101E80008068084000D0012070470AB101617047A6
:101E90000904FBE701488068704700002400002027
:101EA0000248816802781144816070472400002054
:101EB000074810B5016841F010010160032000F0EF
:101EC00075F80F2000F006F800F024F8002010BD8F
:101ED0000020024070B50D4D04464FF47A71287809
:101EE000B1FBF0F00A490968B1FBF0F000F0DCFA50
:101EF00048B9102C07D200222146501E00F036F8B7
:101F000000206C6070BD012070BD00002400002026
:101F1000300000200C4808B5816941F00101816161
:101F2000816901F001010091C16941F08051C161F5
:101F3000C06900F0805000900448416821F0E061E1
:101F400041F00071416008BD0010024000000140F6
:101F5000002809DB00F01F020121914040098000A8
:101F600000F1E020C0F8001170470000F0B40E4B03
:101F70001B680C46C3F30223C3F10705042D00D9E7
:101F80000425191D072901D2002300E0DB1E0126CC
:101F900006FA05F1491E214099409E40761E1640E2
:101FA0003143F0BC01F02DBB0CED00E0064900F020
:101FB000070208684FF6FF03184040EA0220034A70
:101FC00010430860704700000CED00E00000FA05C7
:101FD0002DE9F0470F46050061D0434E306800F010
:101FE0000700B84209D2306820F00700384330605B
:101FF000306800F00700B84251D128683B4C810797
:1020000012D5400703D5606840F4E060606028782E
:10201000000703D5606840F4605060606068A9689C
:1020200020F0F000084360602878C00728D0686876
:10203000012810D02168022810D0890700292EDA43
:10204000616821F0030101436160FFF723FF8046CF
:1020500041F288390DE021688903EFE78901EDE756
:10206000FFF718FFA0EB0801494502D90320BDE89E
:10207000F0876068696800F00C00B0EB810FEFD169
:10208000306800F00700B8420BD9306820F0070034
:1020900038433060306800F00700B84201D00120BA
:1020A000E5E72878400705D56068E96820F4E06036
:1020B000084360602878000706D56068296920F425
:1020C000605040EAC100606000F038F86168084A7A
:1020D000C1F30311515CC840064908600648006816
:1020E000FFF7F8FE0020C2E7002002400010024087
:1020F0002C3E00083000002028000020044805493C
:1021000000684968044AC1F30221515CC840704725
:1021100030000020001002403C3E00080448054901
:1021200000684968044AC1F3C221515CC840704745
:1021300030000020001002403C3E00080E4A51686A
:102140000E4801F00C03042B11D0082B0FD10C48C2
:10215000C1F38343C903C05C0AD55168084AC1F37F
:102160004041921E515C054A5043B0FBF1F070476C
:1021700004494843704700000010024000127A00F2
:102180001C3E000800093D002DE9F84F040070D006
:102190002078C04DC00749D06868C0F3810001288D
:1021A00007D06868C0F38100022809D16868C003BD
:1021B00006D52868800339D560680028E7D035E067
:1021C0006068B0F5803F0BD010B1B0F5A02F11D0F2
:1021D000286820F480302860286820F4802002E0FD
:1021E000286840F480302860606890B1FFF752FEA4
:1021F00006460AE0286840F480202860F0E700BF27
:10220000FFF748FE801B642873D828688003F7D541
:102210000CE0FFF73FFE064605E000BFFFF73AFE81
:10222000801B6428F0D828688003F7D420789A4E61
:1022300080074FF001094FF0000839D5686810F0A9
:102240000C0F07D06868C0F38100022809D16868C4
:10225000C00306D42868800714D52069012808D156
:1022600010E02069B0B1C6F80090FFF713FE0746F2
:1022700005E00AE1FFF70EFEC01B0228C4D828685B
:102280008007F7D52868616920F0F80040EAC100AE
:1022900028600DE0C6F80080FFF7FCFD074604E06B
:1022A000FFF7F8FDC01B022823D828688007F7D461
:1022B000207800072CD57948A169D9B1C0F80090E1
:1022C000FFF7E8FD074604E0FFF7E4FDC01B022826
:1022D0000FD8686A8007F7D571484FF4FA51006843
:1022E000B0FBF1F0009000BF0098411E0091FAD2BF
:1022F0000EE080E0C0F80080FFF7CCFD074604E068
:10230000FFF7C8FDC01B022875D8686A8007F7D49C
:102310002078400760D5E8690027C00008D4E86944
:1023200040F08050E861E869012700F0805000909B
:102330005C480168C90513D40168834641F4807183
:102340000160FFF7A7FD824606E000BFFFF7A2FD90
:10235000A0EB0A0064284ED8DBF80000C005F5D5D4
:10236000E06801280AD008B1052813D0286A20F0B7
:1023700001002862286A20F0040002E0286A40F088
:1023800001002862E06841F2883B98B1FFF782FDC6
:1023900082460BE0286A40F004002862EEE700BFA6
:1023A000FFF778FDA0EB0A0159455AD8286A800743
:1023B000F6D50CE0FFF76EFD824605E0FFF76AFDFB
:1023C000A0EB0A0159454CD8286A8007F6D41FB102
:1023D000E86920F08050E861E06988B36968C1F37A
:1023E0008101022944D00228C6F8608004D0FFF79A
:1023F00051FD044638E034E0FFF74CFD074604E0A9
:10240000FFF748FDC01B02282BD828688001F7D4AD
:10241000206AB0F5803F05D16868A16820F40030DB
:1024200008436860D4E908010843696821F474111D
:1024300008436860C6F86090FFF72CFD044606E08C
:1024400025E000BFFFF726FD001B022809D82868F9
:102450008001F7D51BE000BFFFF71CFD001B022821
:1024600002D90320BDE8F88F28688001F4D40EE07B
:102470000128F7D06868226A00F48031914204D1C3
:10248000616A00F47010884201D00120EAE7002060
:10249000E8E700000010024000004242800442428F
:1024A000300000200070004010B5401EB0F1807F69
:1024B00001D3012010BD4FF0E02460610F216017AF
:1024C00001F09FF80020A06107202061002010BDCE
:1024D0007047704770B590F83C20012A26D001243F
:1024E00080F83C40022280F83D2003685A689D68CD
:1024F00022F070060A6832435A600D4B02689A4215
:1025000008D0B2F1804F05D00A4B9A4202D00A4B54
:102510009A4204D1496825F080031943916080F8FC
:102520003D40002180F83C10084670BD022070BD7F
:10253000002C0140000400400008004010B50400D9
:1025400003D094F83D0010B107E0012010BD002039
:1025500084F83C00204600F01FF8022084F83D007B
:10256000211D206800F0EEFD012084F8460084F86B
:102570003E0084F83F0084F8400084F8410084F86D
:10258000420084F8430084F8440084F8450084F84D
:102590003D00002010BD000008B500680B498842CE
:1025A00012D10B48C16941F00401C161C069002228
:1025B00000F00400009011461E20FFF7D7FCBDE894
:1025C00008401E20FFF7C4BC08BD00000008004002
:1025D0000010024090F83D10012901D00120704701
:1025E000022180F83D100168CA6842F00102CA6009
:1025F00000680B49884208D0B0F1804F05D00949E6
:10260000884202D00849884204D1816801F007015C
:10261000062903D0016841F00101016000207047E4
:10262000002C0140000400400008004070B5044642
:1026300090F83C000025012817D0012684F83C6062
:10264000022084F83D002068826822F0770222F49C
:102650007F4282600868502838D00DDC20284FD097
:1026600005DC90B3102811D14AE0022070BD30285B
:1026700046D040280AD13BE060282FD070280DD0EA
:10268000B0F5805F03D0B0F5005F12D0012584F86B
:102690003D60002084F83C00284670BDCB68D1E93D
:1026A0000121206800F091FD2068816841F07701E8
:1026B00009E0CB68D1E90121206800F086FD20689F
:1026C000816841F480418160E1E719E0CA684968A6
:1026D000206800F02FFE5021206806E0CA68496893
:1026E000206800F038FE6021206800F078FDCEE719
:1026F000CA684968206800F01DFE40212068F4E7A0
:10270000226801461046F0E7704770B5044600683D
:1027100001694FF00005C943890715D4C168C94351
:10272000890711D4E91E01610120207720688069A2
:102730008007204602D0FFF7E7FF04E000F0BCF876
:10274000204600F069F9257720680169C9434907E7
:1027500017D4C168C943490713D46FF0040101615C
:10276000022020772068806910F4407F204602D044
:10277000FFF7CAFF04E000F09FF8204600F04CF994
:10278000257720680169C943090716D4C168C94380
:10279000090712D46FF00801016104202077206836
:1027A000C0698007204602D0FFF7AEFF04E000F0CA
:1027B00083F8204600F030F9257720680169C94385
:1027C000C90617D4C168C943C90613D46FF01001F4
:1027D0000161082020772068C06910F4407F2046FE
:1027E00002D0FFF791FF04E000F066F8204600F009
:1027F00013F9257720680169C943C90708D1C16861
:10280000C943C90704D1891E0161204600F054F96B
:1028100020680169C943090609D4C168C94309068A
:1028200005D46FF0800101612046FFF751FE20685A
:102830000169C943490609D4C168C943490605D499
:102840006FF040010161204600F070F920680169D5
:10285000C94389060BD4C168C943890607D46FF000
:10286000200101612046BDE87040FFF732BE70BD17
:1028700000B585B00021009101910291039100689B
:10288000B0F1804F11D10A48816941F004018161A2
:102890008069694600F0040004900F200090022037
:1028A000019003900348FFF7FBF905B000BD00005D
:1028B0000010024000080140704770B5044690F8CF
:1028C0003C0000260D4601280FD0012084F83C0072
:1028D0006AB1042A1DD0082A2FD00C2A3FD0012625
:1028E000002084F83C00304670BD022070BD206896
:1028F00000F07EFC2068816941F008018161206858
:10290000816921F004018161206881692A6911438C
:1029100011E0206800F094FC2068816941F40061B6
:1029200081612068816921F4806181612068816909
:102930002A6941EA02218161D2E7206800F0ACFCFB
:102940002068C16941F00801C1612068C16921F0B6
:102950000401C1612068C1692A69114311E020683E
:1029600000F0C6FC2068C16941F40061C1612068C3
:10297000C16921F48061C1612068C1692A6941EAA5
:102980000221C161ACE710B5040003D094F83D000A
:1029900010B107E0012010BD002084F83C00204663
:1029A00000F01EF8022084F83D00211D206800F090
:1029B000C9FB012084F8460084F83E0084F83F00FB
:1029C00084F8400084F8410084F8420084F8430011
:1029D00084F8440084F8450084F83D00002010BDD0
:1029E00008B50068B0F1804F12D10A48C16941F0C2
:1029F0000101C161C069002200F001000090114690
:102A00001C20FFF7B3FABDE808401C20FFF7A0BA6E
:102A100008BD0000001002407047000010B50446D9
:102A2000022249B104290ED0082913D094F841009C
:102A3000012816D0012010BD94F83E000128F9D1DC
:102A400084F83E200FE094F83F000128F2D184F88A
:102A50003F2008E094F840000128EBD184F84020A2
:102A600001E084F841200122206800F0A1FB0F4919
:102A70002068884203D1426C42F4004242642068DC
:102A8000884208D0B0F1804F05D00949884202D071
:102A90000849884204D1816801F00701062903D062
:102AA000016841F001010160002010BD002C0140CF
:102AB000000400400008004010B500681449884236
:102AC00025D1144C0021E08800B22081E1804EF62F
:102AD0006021484300F09CFF00220F4B00F040FEB5
:102AE00000F00CFE0121606101F059F901F0A6F837
:102AF0000A4A0B4B00F0A4FF00220A4B00F030FE04
:102B000000F0FCFD0849206164200968486310BD9D
:102B100000080040000000200000B240182D44547E
:102B2000FB21094000004E404000002070477047E4
:102B300070470000F8B5016804460868CA684B6928
:102B400010F00F0F4FF0000559D003F0010602F40A
:102B50009077374365D0C10705D0D10503D5616CA7
:102B600041F001016164410705D5D90703D0616CCB
:102B700041F002016164810705D5D90703D0616C7A
:102B800041F004016164010707D502F020013143DF
:102B900003D0616C41F008016164616C00293AD096
:102BA000800604D5900602D5204600F015FC20686A
:102BB0004069616CC0F38010090700D460B32046FF
:102BC00000F0E3FB20684069400621D520681430FE
:102BD00050E8001F21F0400140E80012002AF5D122
:102BE000E06BA8B16D494163E06BFEF7EDFF002893
:102BF00011D0E06B416B01B0BDE8F040084783069F
:102C00000FD593060DD52046BDE8F84000F0E4BB93
:102C10002046FFF78DFFF8BD2046FFF789FF65646A
:102C2000F8BD266B2023012E7CD1C6067AD5D606A8
:102C300078D508684868009048694FF00206400659
:102C400040D5E16B086840680004000CE8D0A28D14
:102C50008242E5D9E085886920282DD020680C3093
:102C600050E8001F21F4807140E80012002AF5D1DD
:102C70002068143050E8001F21F0010140E80012E4
:102C8000002AF5D12068143050E8001F21F04001DF
:102C900040E80012002AF5D184F84230256320680C
:102CA0000C3050E8001F21F0100140E80012002A0B
:102CB000F5D1E06BFEF764FF6663A08DE18D401AED
:102CC00081B22AE0A08DE18D401A81B2E08D00280A
:102CD000A6D00029A4D022680C3252E8000F20F4BC
:102CE000907042E80007002FF5D12068143050E8BA
:102CF000002F22F0010240E80027002FF5D184F8D0
:102D00004230256320680C3050E8002F22F010027A
:102D100040E80023002BF5D166632046FFF707FF4C
:102D2000F8BDFFE705062BD5150629D594F8410017
:102D30002128F5D1A068B0F5805F01D12069B0B13C
:102D4000206A411C2162216800784860E08C401EA6
:102D50000004000CE084E3D12068C16821F0800108
:102D6000C1602068C16841F04001C160D8E7206AB5
:102D70000088C0F308004860206A801C2062E5E7F4
:102D80004006CDD55006CBD5CA68204622F0400279
:102D9000CA6084F8413000F0C3F8C1E77B33000813
:102DA00070B5040004D094F84100002510B106E08D
:102DB000012070BD84F84050204600F023F8242004
:102DC00084F841002068C16821F40051C1602046A8
:102DD00000F064FB2068016921F4904101612068E2
:102DE000416921F02A0141612068C16841F4005124
:102DF000C1606564202084F8410084F84200656366
:102E0000002070BD30B585B0002400940194029478
:102E100003940068184988422CD11848816941F40C
:102E200080418161816901F480410491816941F0AF
:102E3000040181618069124D00F0040004904FF498
:102E400000700090022001900320039069462846FC
:102E5000FEF726FF2815CDE90004694628460294AE
:102E6000FEF71EFF002211462520FFF77FF82520E0
:102E7000FFF76EF805B030BD003801400010024089
:102E80000008014070472DE9F843044690F84100DE
:102E90001F4616460D46202802D00220BDE8F883C2
:102EA0007DB176B100206064212084F84100FEF7F6
:102EB000F1FFA6848046E684A068B0F5805F02D06A
:102EC00003E00120EAE7206910B12E4600250EE05C
:102ED00000260CE08021204600F03CFBA0B9AEB1FA
:102EE00016F8010B21684860E08C401EE084E08CFD
:102EF00043464FF0000200970028EBD14FF040010D
:102F0000204600F027FB30B10320C7E735F8020B5D
:102F1000C0F30800E6E7202084F841000020BDE768
:102F20007047FEE730B585B0002000900190029018
:102F300003901E48816941F004018161816901F0BB
:102F400004010491816941F0080181618069184D93
:102F500000F008000490002220212846FEF795FF8B
:102F600020200124CDE900040220CDE90240694679
:102F70002846FEF795FE532000900E48CDE9010447
:102F800069460D48FEF78CFE002211460A20FEF726
:102F9000EDFF0A20FEF7DCFF002211461720FEF7A6
:102FA000E5FF1720FEF7D4FF05B030BD001002404A
:102FB0000008014000003110000C014010B58AB03B
:102FC000002407941C2168460894FDF7A4F92148C1
:102FD0004FF0804101600B21C0E901146421C0E978
:102FE00003148461FFF7CFFC08B172B6FEE70794C3
:102FF00007A918480894FFF76DFA08B172B6FEE702
:103000006020CDE90004029400226946114804942E
:10301000FFF753FC08B172B6FEE7042269460D487B
:10302000FFF74BFC08B172B6FEE708226946094873
:10303000FFF743FC08B172B6FEE70C22694605486B
:10304000FFF73BFC08B172B6FEE70248FFF710FC41
:103050000AB010BD4000002010B586B0002417480B
:10306000009401940294039404941349059401601C
:1030700045F6BF51C0E901140421C0E9031484617D
:10308000FFF75CFA08B172B6FEE74FF4805000908B
:1030900069460A48FFF7CAFA08B172B6FEE7049417
:1030A00004A906480594FFF715FA002801D072B666
:1030B000FEE706B010BD00000008004088000020B8
:1030C000FEE7FEE770477047FEF7EABE30B58FB007
:1030D00028216846FDF71FF914210AA8FDF71BF9FE
:1030E00002240120049000941020059000254FF444
:1030F0002010CDE9085007946846FFF745F808B15D
:1031000072B6FEE70AA90F2081E831004FF4A060F3
:103110000D900E9001210AA8FEF75AFF002801D059
:1031200072B6FEE70FB030BD704700000148FFF7F0
:10313000ECBA0000400000200148FFF7E6BA0000AA
:1031400088000020F0B50268164B174C174D4FF061
:103150008047984205D0B84203D0A04201D0A8428F
:1031600003D122F070064A683243984205D0B84233
:1031700003D0A04201D0A84203D122F44074CA680F
:1031800022434C6922F08002224302608A68C262B4
:103190000A688262984201D1096901630121416193
:1031A000F0BD0000002C0140000400400008004079
:1031B00010B501F01F030121046A99408C43046299
:1031C000016A9A401143016210BD10B5846842EA59
:1031D000032224F47F440A432243826010BD8268A4
:1031E00022F070020A4342F007018160704700003C
:1031F00030B5036A026A22F0010202624268846901
:1032000024F073050C682C4323F002058B682B43D4
:103210000A4DA8420BD123F00805CB6822F4407276
:103220002B434D6923F0040315438A692A43426006
:10323000846149684163036230BD0000002C014095
:1032400030B5026A036A23F010030362436884699D
:103250000D6824F4E64444EA05248D6822F0200237
:1032600042EA05120B4DA8420ED1CD6822F0800231
:1032700042EA05124D6923F4406343EA85038D69F0
:1032800022F0400243EA8503436084614968816318
:10329000026230BD002C014030B5036A026A22F49C
:1032A000807202624268C46923F4007324F07305DB
:1032B0000C682C438D6843EA05230C4DA8420ED1BF
:1032C000CD6823F4006343EA05234D6922F440529C
:1032D00042EA05128D6923F4806342EA05124260D6
:1032E000C4614968C163036230BD0000002C014025
:1032F00030B5046A026A22F4805202624268C369ED
:103300000D6823F4E64343EA05238D6824F4005452
:1033100044EA0534064DA84204D14D6922F48042A6
:1033200042EA85124260C36149680164046230BDAB
:10333000002C014010B5036A046A24F00104046201
:10334000846924F0F00444EA021423F00A020A43D8
:103350008461026210BD10B5036A046A24F010048F
:103360000462846923F0A00324F4704444EA023226
:1033700043EA01118261016210BD10B5406A00216B
:10338000C185C184FFF7D4FB10BD01680C3151E841
:10339000002F22F4907241E80023002BF5D1016840
:1033A000143151E8002F22F0010241E80023002BE4
:1033B000F5D1016B012909D101680C3151E8002FC9
:1033C00022F0100241E80023002BF5D1202180F8E3
:1033D000421000210163704708B590F8421022297D
:1033E00001D0022008BD82684FF480539A4201D177
:1033F000016921B1816A9A421BD04AB10AE0026890
:10340000816A5268C2F308020A80816A891C08E056
:10341000026972B10268526802F07F020A70816A22
:10342000491C8162C18D491E0904090CC18503D064
:103430001BE002685268F1E70168CA6822F02002C6
:10344000CA600168CA6822F48072CA6001684A6969
:1034500022F001024A61202180F8421000214163DC
:10346000026B012A03D0FFF70DFD002008BD0163A8
:1034700001680C3151E8002F22F0100241E80023CE
:10348000002BF5D101680A68D20602D50A6849689E
:103490000091818DFFF74BFBE7E7000070B5044614
:1034A00000680169E26821F440511143016121691A
:1034B000A0680843616908432168CA6841F20C6347
:1034C0009A430243CA6020684169A26921F44071AD
:1034D000114341611E492068884202D1FEF71EFE59
:1034E00001E0FEF70BFE00EBC00101EB001260688B
:1034F00064218000B2FBF0F3B3FBF1F36FF0180628
:103500007343B2FBF0F5B2FBF0F605EB8305322313
:1035100003EB0515B5FBF1F5B6FBF1F605F0F0058B
:1035200005EB0615B2FBF0F6B2FBF0F0B0FBF1F0E4
:103530006FF01802504306EB800003EB0010B0FB65
:10354000F1F0216800F00F002844886070BD000091
:10355000003801402DE9F041984617460E460446D2
:10356000069D27E0681C25D02DB1FEF793FCA0EB4B
:103570000800A8421ED920680C3050E8001F21F432
:10358000D07140E80012002AF5D12068143050E8CC
:10359000001F21F0010140E80012002AF5D120208F
:1035A00084F8410084F84200002084F840000320A1
:1035B000BDE8F0812068006836EA000004D00020F1
:1035C000B842CFD00020F3E70120F9E70148FFF728
:1035D000B1BA0000D0000020FEE7490050EAC12047
:1035E00018BF04204A0D18BF40F0010040F2FF72DE
:1035F000B2EB515F08BF40F00200012808BF052070
:1036000070470907090E002804DB00F1E02080F86C
:103610000014704700F00F0000F1E02080F8141D46
:10362000704730380A2801D20120704700207047C7
:1036300013B56423012269460248FFF724FC009871
:103640001CBD0000D0000020FEF732FCFFF73EFD5D
:10365000FFF768FCFFF7B2FCFFF7FEFC17481649BE
:103660000C2201604FF41651416000218160C1605D
:10367000C0E904128161C161FFF792FB08B172B623
:10368000FEE70E4800219038FFF7C8F90B480421E7
:103690009038FFF7C3F909484838FEF79BFF084CFC
:1036A000606900F0CBFA02460B4606A0FCF7A0FDCD
:1036B0002820FEF7D5FAF3E700380140D0000020BB
:1036C000000000202D2D2D252E33662D2D2D0000E0
:1036D00010B500290AD00878002807D0054878449A
:1036E000FDF76CFB002801D0002010BD0248784493
:1036F00010BD0000260800001E08000021F0004256
:10370000A2F16052B2F5801F01F0004328BFD2F150
:103710007F6C0BD95FEA001C43EAC20242EB507097
:1037200018BF704728BF20F001007047B2F5801F16
:10373000BCBF184670474FEA410C1CF5001F02D26F
:10374000084600F0F3BA70B500F024FA00000089D2
:10375000FFF7F6BF4FF00040A0F580007047000073
:103760002DE9C04130B4DFF8A0C23CEA111418BF03
:103770003CEA131400F0EC8081EA03051CEA111402
:1037800044EAD57418BF1CEA131500F0C780A4EBF7
:1037900005044FF0004545EAC12145EAC32341EA4B
:1037A000505143EA525304F17F74994204F50034B6
:1037B0004FEAC0204FEAC22208BF904200F09C802E
:1037C0004FEA13650FF24016765D4FEA134506FB8C
:1037D00005F7C7F1807706FB07F74FEAD737A7FB56
:1037E00003687642C8F58038A7FB06CE38BFA8F13B
:1037F000010807FB08E64FF0000EA6FB028CE6FB73
:1038000003CEDCF1000CCEF1004E38BFAEF1010E5C
:10381000A6FB0C584FF000074FF00005E6FB0E87A3
:10382000A1FB08C6A0FB07CE16EB0E0645F100056E
:10383000E1FB076515F1E04E7EBFA4F580345FEA39
:1038400046066D4116F1800745F100054FEA17273E
:103850004FEA066647EA0567A6F1DE46B6F1805FE5
:103860004FEA15251FD9384624F0010C05EBC47129
:10387000BCF1FE6F01EB0C1102D8F0BCBDE8008179
:1038800024425CBF01F5801E9EEAC47F02D4F0BCD6
:10389000BDE80081244238D4F0BCA1F1C041BDE8AC
:1038A000004100F0C5B94FEAD22242EA43524FEA42
:1038B000D323A7FB02864FEAD02040EA415007FB02
:1038C00003661EEA0E0F4FEAD12105FB026658BFC0
:1038D000A6EB0056B6EB00564FEA520E4EEAC37EF8
:1038E00018EB0E0E56EB530EBDD518EB02085E41D9
:1038F0007F1C55F10005B6E74FF480154FF0000727
:103900004FF000064FF00008ADE7F0BC4FF00000AC
:1039100001F1C04101F00041BDE8008111EA0C1F36
:103920000CEA131500D00CE013EA0C1F00F0258000
:103930004FF00000F0BC81EA030101F00041BDE856
:103940000081F0BCBDE8004181EA030100F070B9DC
:10395000F0BCBDE8004170B500F01CF9097EFC3EEA
:1039600000F007B881EA03014FF0000001F00041C8
:10397000704781EA030100F05BB9F0BCBDE800418B
:103980004FF0000021497047FFFDFBF9F7F5F4F215
:10399000F0EEEDEBE9E8E6E4E3E1E0DEDDDBDAD8EA
:1039A000D7D5D4D3D1D0CFCDCCCBCAC8C7C6C5C448
:1039B000C2C1C0BFBEBDBCBBBAB9B8B7B6B5B4B35F
:1039C000B2B1B0AFAEADACABAAA9A8A8A7A6A5A44A
:1039D000A3A3A2A1A09F9F9E9D9C9C9B9A9999980E
:1039E0009797969595949393929191908F8F8E8EB1
:1039F0008D8C8C8B8B8A898988888787868585843E
:103A000084838382828181800000FF070000F87F29
:103A100010F0004248BF4042B0FA80F310FA03F1C0
:103A20000AD0C3F11D0303F580634FEA415002EB56
:103A3000035202EBD12170474FF0000070470000A5
:103A4000DFF848C170B51CEA111E1EBF1CEA131531
:103A50009EEA0C0F95EA0C0F00F06F8081EA0304D8
:103A600023EA4C134EEAD47E21EA4C1141F4801132
:103A700043F48013AE44A1FB024CA0FB0365AEF1FE
:103A80007F7E361955EB0C05A1FB034C4CF100036E
:103A9000A0FB021C16EB0C06654153F10003094222
:103AA00018BF46F0010613F4007F0BD14FEA033133
:103AB0004FEA0530340341EA155140EA16506FF0E1
:103AC00003020AE04FEAC3214FEAC520F40241EAAB
:103AD000555140EA56506FF0020202EB2E4201EBC4
:103AE000025585EACE710AD05FEA440C18BF24F073
:103AF000004450F1000041F1000120EAD47040F28E
:103B0000FE7C624500D270BDA84214BF4FF08044D5
:103B10004FF04044002E08BF0024BEF1806FA8BFC4
:103B2000A1F1C041BDE8704080F282804FF00000FA
:103B300001F1C04101F0004170479EEA0C0F0CEA10
:103B4000131518BF95EA0C0F06D04FF0000081EA5C
:103B5000030E0EF0004170BD00F01CF88900013E1C
:103B600000F007B800F009B84FEA430C5FEA5C5C6C
:103B700008D081EA030100F05BB84FEA410C5FEA2C
:103B80005C5CF6D14FF00000014970470000FF0770
:103B90000000F87F0EF1020E2EF0030E5EF8046BAB
:103BA000364205D4012A43EB030515F5001F12D850
:103BB000012841EB010C1CF5001F0CD80ED14FEA77
:103BC000D17C15F5001F0CEB4C0C0CF1020C08BF5E
:103BD0004CEBD37C04E04FF0080C01E04FEAD37CBF
:103BE0000CEB4C0526FA05F606F00706B6F1040CB8
:103BF00006D20EEB860CBDE870404CF0010C60471D
:103C0000DFE80CF0090B02024FF000414FF000001A
:103C1000A1F5002170BD19461046012851EB0104A1
:103C200018BFD4F5001484BF002001F0004170BD1E
:103C30000808A0F500114FEA3101704743004FEA30
:103C4000D30C4FEA3C0C43401FBF40070CF16051BE
:103C500013F0FE4F70471CF0006F03D100200CF0F2
:103C6000004170470CF0004343EA507010B540EA41
:103C7000CC0000F015F800BF000000924FEA0001F0
:103C8000FFF7D6BF4FF000414FF00000A1F5002133
:103C900070470000014800F050B800BF0000C07F2E
:103CA0000EF1020E2EF0030E5EF8044B244204D4F3
:103CB0004FEA4102B2F17F4F11D84FEA4003B3F10E
:103CC0007F4F0CD80ED14FEAD07CB2F17F4F0CEB76
:103CD0004C0C0CF1020C08BF4CEBD17C04E04FF013
:103CE000080C01E04FEAD17C0CEB4C0324FA03F4FE
:103CF00004F00704B4F1040C06D20EEB840CBDE80A
:103D000010404CF0010C6047DFE80CF0070802029D
:103D10004FF00040A0F5800010BD0846420018BFDB
:103D2000D2F1807288BF00F0004010BDFF2141EA4F
:103D3000D050C0057047FCF7F1BB0CF00F03092B06
:103D400008BF082000F051800A2B0BD0082B18BFA9
:103D5000704708BF1CF0400F0AD04FF000004FF032
:103D6000000170471CF0400F18BF4FF00040704733
:103D70001CF0100F08D020F0704300F07F4242EAA0
:103D8000D3014FEA4370704700F0604021F07F425A
:103D900042EA000201F07F4040EA727070474FF043
:103DA000FF0212EAD0521CBF92F0FF038B42C2BF47
:103DB000D14200EBC1507047002A0AD0002B0BD033
:103DC000002900F00040A4BF40F0FE4040F4000095
:103DD000704700F00040704743024FF00B0C18BFD3
:103DE0004CF0806C7FF456AF70471CF4801F11D0EC
:103DF0001CF4E02F03D06FEACC31490070474FF03C
:103E00004050EFF3008222F0704242EA000282F357
:103E1000008870474FF0000070470102020304055C
:103E2000060708090A0B0C0D0E0F10100000000009
:103E3000000000000102030406070809000000005A
:103E40000102030402400000000000A00000000086
:103E500005400000000000C8000000000C40000009
:103E60000000409C00000000194000000020BCBE83
:103E70000000000034400000BFC91B8E0000000499
:103E8000B5400000504BCFD06607E2CF01000000E4
:103E90006C4100003E8251AADFEEA7340100000011
:103EA000D9420000DCB5A0E23A301F97FFFFFFFFC8
:103EB000B4450000FD25A0C8E9A3C14FFFFFFFFFE7
:103EC000FF3F00000000008000000000FF3F0000F6
:103ED00000000080000000003A7474003A7474001E
:103EE0003A747400203F00080000002040000000E9
:103EF00028010008603F000840000020380800004A
:103F0000440100081C00000043000000F8FFFFFF10
:103F10000C0000000E0000000F0000002E0000004A
:103F20000000000000000000000000000000000091
:103F30000000000000000000000000000000000081
:103F40000000000001000000100000000000000060
:103F50000024F40000000000000000000000000049
:04000005080000ED02
:00000001FF
